{
  "abi": [
    {
      "inputs": [
        {
          "internalType": "address",
          "name": "_weth",
          "type": "address"
        },
        {
          "internalType": "address",
          "name": "_swapRouter",
          "type": "address"
        },
        {
          "internalType": "address",
          "name": "_priceFeed",
          "type": "address"
        }
      ],
      "stateMutability": "nonpayable",
      "type": "constructor"
    },
    {
      "anonymous": false,
      "inputs": [
        {
          "indexed": true,
          "internalType": "address",
          "name": "owner",
          "type": "address"
        },
        {
          "indexed": true,
          "internalType": "address",
          "name": "approved",
          "type": "address"
        },
        {
          "indexed": true,
          "internalType": "uint256",
          "name": "tokenId",
          "type": "uint256"
        }
      ],
      "name": "Approval",
      "type": "event"
    },
    {
      "anonymous": false,
      "inputs": [
        {
          "indexed": true,
          "internalType": "address",
          "name": "owner",
          "type": "address"
        },
        {
          "indexed": true,
          "internalType": "address",
          "name": "operator",
          "type": "address"
        },
        {
          "indexed": false,
          "internalType": "bool",
          "name": "approved",
          "type": "bool"
        }
      ],
      "name": "ApprovalForAll",
      "type": "event"
    },
    {
      "anonymous": false,
      "inputs": [
        {
          "indexed": false,
          "internalType": "address",
          "name": "token",
          "type": "address"
        },
        {
          "indexed": false,
          "internalType": "uint256",
          "name": "proportion",
          "type": "uint256"
        }
      ],
      "name": "AssetProportionChanged",
      "type": "event"
    },
    {
      "anonymous": false,
      "inputs": [
        {
          "indexed": false,
          "internalType": "address",
          "name": "token",
          "type": "address"
        },
        {
          "indexed": false,
          "internalType": "uint256",
          "name": "balance",
          "type": "uint256"
        },
        {
          "indexed": false,
          "internalType": "uint256",
          "name": "value",
          "type": "uint256"
        },
        {
          "indexed": false,
          "internalType": "uint256",
          "name": "required_value",
          "type": "uint256"
        },
        {
          "indexed": false,
          "internalType": "uint256",
          "name": "proportion",
          "type": "uint256"
        }
      ],
      "name": "AssetState",
      "type": "event"
    },
    {
      "anonymous": false,
      "inputs": [
        {
          "indexed": false,
          "internalType": "address",
          "name": "token",
          "type": "address"
        },
        {
          "indexed": false,
          "internalType": "uint256",
          "name": "amount",
          "type": "uint256"
        },
        {
          "indexed": false,
          "internalType": "uint256",
          "name": "minOut",
          "type": "uint256"
        }
      ],
      "name": "Buy",
      "type": "event"
    },
    {
      "anonymous": false,
      "inputs": [
        {
          "indexed": true,
          "internalType": "address",
          "name": "previousOwner",
          "type": "address"
        },
        {
          "indexed": true,
          "internalType": "address",
          "name": "newOwner",
          "type": "address"
        }
      ],
      "name": "OwnershipTransferred",
      "type": "event"
    },
    {
      "anonymous": false,
      "inputs": [
        {
          "indexed": false,
          "internalType": "address",
          "name": "token",
          "type": "address"
        },
        {
          "indexed": false,
          "internalType": "uint256",
          "name": "amount",
          "type": "uint256"
        },
        {
          "indexed": false,
          "internalType": "uint256",
          "name": "minOut",
          "type": "uint256"
        }
      ],
      "name": "Sell",
      "type": "event"
    },
    {
      "anonymous": false,
      "inputs": [
        {
          "indexed": true,
          "internalType": "address",
          "name": "from",
          "type": "address"
        },
        {
          "indexed": true,
          "internalType": "address",
          "name": "to",
          "type": "address"
        },
        {
          "indexed": true,
          "internalType": "uint256",
          "name": "tokenId",
          "type": "uint256"
        }
      ],
      "name": "Transfer",
      "type": "event"
    },
    {
      "inputs": [],
      "name": "WETH9",
      "outputs": [
        {
          "internalType": "contract IWETH9",
          "name": "",
          "type": "address"
        }
      ],
      "stateMutability": "view",
      "type": "function"
    },
    {
      "inputs": [
        {
          "internalType": "address",
          "name": "_token",
          "type": "address"
        },
        {
          "internalType": "uint256",
          "name": "_proportion",
          "type": "uint256"
        },
        {
          "internalType": "address",
          "name": "_priceFeed",
          "type": "address"
        }
      ],
      "name": "addAsset",
      "outputs": [],
      "stateMutability": "nonpayable",
      "type": "function"
    },
    {
      "inputs": [
        {
          "internalType": "address",
          "name": "to",
          "type": "address"
        },
        {
          "internalType": "uint256",
          "name": "tokenId",
          "type": "uint256"
        }
      ],
      "name": "approve",
      "outputs": [],
      "stateMutability": "nonpayable",
      "type": "function"
    },
    {
      "inputs": [
        {
          "internalType": "address",
          "name": "",
          "type": "address"
        }
      ],
      "name": "assets",
      "outputs": [
        {
          "internalType": "bool",
          "name": "active",
          "type": "bool"
        },
        {
          "internalType": "uint256",
          "name": "proportion",
          "type": "uint256"
        }
      ],
      "stateMutability": "view",
      "type": "function"
    },
    {
      "inputs": [
        {
          "internalType": "address",
          "name": "owner",
          "type": "address"
        }
      ],
      "name": "balanceOf",
      "outputs": [
        {
          "internalType": "uint256",
          "name": "",
          "type": "uint256"
        }
      ],
      "stateMutability": "view",
      "type": "function"
    },
    {
      "inputs": [
        {
          "internalType": "address",
          "name": "_token",
          "type": "address"
        },
        {
          "internalType": "uint256",
          "name": "_proportion",
          "type": "uint256"
        }
      ],
      "name": "changeAssetProportion",
      "outputs": [],
      "stateMutability": "nonpayable",
      "type": "function"
    },
    {
      "inputs": [
        {
          "internalType": "uint256",
          "name": "_nftId",
          "type": "uint256"
        }
      ],
      "name": "deposit",
      "outputs": [],
      "stateMutability": "payable",
      "type": "function"
    },
    {
      "inputs": [
        {
          "internalType": "uint256",
          "name": "tokenId",
          "type": "uint256"
        }
      ],
      "name": "getApproved",
      "outputs": [
        {
          "internalType": "address",
          "name": "",
          "type": "address"
        }
      ],
      "stateMutability": "view",
      "type": "function"
    },
    {
      "inputs": [
        {
          "internalType": "address",
          "name": "_token",
          "type": "address"
        }
      ],
      "name": "getAssetProportion",
      "outputs": [
        {
          "internalType": "uint256",
          "name": "",
          "type": "uint256"
        }
      ],
      "stateMutability": "view",
      "type": "function"
    },
    {
      "inputs": [
        {
          "internalType": "address",
          "name": "_token",
          "type": "address"
        }
      ],
      "name": "getAssetValue",
      "outputs": [
        {
          "internalType": "uint256",
          "name": "",
          "type": "uint256"
        }
      ],
      "stateMutability": "view",
      "type": "function"
    },
    {
      "inputs": [],
      "name": "getAssets",
      "outputs": [
        {
          "components": [
            {
              "internalType": "address",
              "name": "token",
              "type": "address"
            },
            {
              "internalType": "bool",
              "name": "active",
              "type": "bool"
            },
            {
              "internalType": "uint256",
              "name": "proportion",
              "type": "uint256"
            },
            {
              "internalType": "uint256",
              "name": "amount",
              "type": "uint256"
            },
            {
              "internalType": "uint256",
              "name": "decimals",
              "type": "uint256"
            },
            {
              "internalType": "uint256",
              "name": "price",
              "type": "uint256"
            },
            {
              "internalType": "uint256",
              "name": "balance",
              "type": "uint256"
            }
          ],
          "internalType": "struct Portfolio.AssetData[]",
          "name": "",
          "type": "tuple[]"
        }
      ],
      "stateMutability": "view",
      "type": "function"
    },
    {
      "inputs": [
        {
          "internalType": "uint256",
          "name": "_nftId",
          "type": "uint256"
        }
      ],
      "name": "getNFTShare",
      "outputs": [
        {
          "internalType": "uint256",
          "name": "",
          "type": "uint256"
        },
        {
          "internalType": "address",
          "name": "",
          "type": "address"
        }
      ],
      "stateMutability": "view",
      "type": "function"
    },
    {
      "inputs": [
        {
          "internalType": "uint256",
          "name": "_nftId",
          "type": "uint256"
        }
      ],
      "name": "getNFTValue",
      "outputs": [
        {
          "internalType": "uint256",
          "name": "",
          "type": "uint256"
        },
        {
          "internalType": "address",
          "name": "",
          "type": "address"
        }
      ],
      "stateMutability": "view",
      "type": "function"
    },
    {
      "inputs": [],
      "name": "getOwners",
      "outputs": [
        {
          "components": [
            {
              "internalType": "address",
              "name": "owner",
              "type": "address"
            },
            {
              "internalType": "uint256",
              "name": "tokenId",
              "type": "uint256"
            },
            {
              "internalType": "uint256",
              "name": "share",
              "type": "uint256"
            }
          ],
          "internalType": "struct SharedFund.OwnerData[]",
          "name": "",
          "type": "tuple[]"
        }
      ],
      "stateMutability": "view",
      "type": "function"
    },
    {
      "inputs": [],
      "name": "getPortfolioValue",
      "outputs": [
        {
          "internalType": "uint256",
          "name": "",
          "type": "uint256"
        }
      ],
      "stateMutability": "view",
      "type": "function"
    },
    {
      "inputs": [],
      "name": "getRemainingProportion",
      "outputs": [
        {
          "internalType": "uint256",
          "name": "",
          "type": "uint256"
        }
      ],
      "stateMutability": "view",
      "type": "function"
    },
    {
      "inputs": [],
      "name": "getTokens",
      "outputs": [
        {
          "internalType": "address[]",
          "name": "",
          "type": "address[]"
        }
      ],
      "stateMutability": "view",
      "type": "function"
    },
    {
      "inputs": [
        {
          "internalType": "address",
          "name": "user",
          "type": "address"
        }
      ],
      "name": "invite",
      "outputs": [
        {
          "internalType": "uint256",
          "name": "",
          "type": "uint256"
        }
      ],
      "stateMutability": "nonpayable",
      "type": "function"
    },
    {
      "inputs": [
        {
          "internalType": "address",
          "name": "owner",
          "type": "address"
        },
        {
          "internalType": "address",
          "name": "operator",
          "type": "address"
        }
      ],
      "name": "isApprovedForAll",
      "outputs": [
        {
          "internalType": "bool",
          "name": "",
          "type": "bool"
        }
      ],
      "stateMutability": "view",
      "type": "function"
    },
    {
      "inputs": [],
      "name": "name",
      "outputs": [
        {
          "internalType": "string",
          "name": "",
          "type": "string"
        }
      ],
      "stateMutability": "view",
      "type": "function"
    },
    {
      "inputs": [],
      "name": "owner",
      "outputs": [
        {
          "internalType": "address",
          "name": "",
          "type": "address"
        }
      ],
      "stateMutability": "view",
      "type": "function"
    },
    {
      "inputs": [
        {
          "internalType": "uint256",
          "name": "tokenId",
          "type": "uint256"
        }
      ],
      "name": "ownerOf",
      "outputs": [
        {
          "internalType": "address",
          "name": "",
          "type": "address"
        }
      ],
      "stateMutability": "view",
      "type": "function"
    },
    {
      "inputs": [
        {
          "internalType": "address",
          "name": "",
          "type": "address"
        }
      ],
      "name": "owners",
      "outputs": [
        {
          "internalType": "uint256",
          "name": "",
          "type": "uint256"
        }
      ],
      "stateMutability": "view",
      "type": "function"
    },
    {
      "inputs": [
        {
          "internalType": "uint256",
          "name": "",
          "type": "uint256"
        }
      ],
      "name": "ownersList",
      "outputs": [
        {
          "internalType": "address",
          "name": "",
          "type": "address"
        }
      ],
      "stateMutability": "view",
      "type": "function"
    },
    {
      "inputs": [],
      "name": "poolFee",
      "outputs": [
        {
          "internalType": "uint24",
          "name": "",
          "type": "uint24"
        }
      ],
      "stateMutability": "view",
      "type": "function"
    },
    {
      "inputs": [],
      "name": "rebalance",
      "outputs": [],
      "stateMutability": "nonpayable",
      "type": "function"
    },
    {
      "inputs": [],
      "name": "renounceOwnership",
      "outputs": [],
      "stateMutability": "nonpayable",
      "type": "function"
    },
    {
      "inputs": [
        {
          "internalType": "address",
          "name": "from",
          "type": "address"
        },
        {
          "internalType": "address",
          "name": "to",
          "type": "address"
        },
        {
          "internalType": "uint256",
          "name": "tokenId",
          "type": "uint256"
        }
      ],
      "name": "safeTransferFrom",
      "outputs": [],
      "stateMutability": "nonpayable",
      "type": "function"
    },
    {
      "inputs": [
        {
          "internalType": "address",
          "name": "from",
          "type": "address"
        },
        {
          "internalType": "address",
          "name": "to",
          "type": "address"
        },
        {
          "internalType": "uint256",
          "name": "tokenId",
          "type": "uint256"
        },
        {
          "internalType": "bytes",
          "name": "data",
          "type": "bytes"
        }
      ],
      "name": "safeTransferFrom",
      "outputs": [],
      "stateMutability": "nonpayable",
      "type": "function"
    },
    {
      "inputs": [
        {
          "internalType": "address",
          "name": "operator",
          "type": "address"
        },
        {
          "internalType": "bool",
          "name": "approved",
          "type": "bool"
        }
      ],
      "name": "setApprovalForAll",
      "outputs": [],
      "stateMutability": "nonpayable",
      "type": "function"
    },
    {
      "inputs": [
        {
          "internalType": "uint256",
          "name": "tokenId",
          "type": "uint256"
        }
      ],
      "name": "shareOf",
      "outputs": [
        {
          "internalType": "uint256",
          "name": "",
          "type": "uint256"
        }
      ],
      "stateMutability": "view",
      "type": "function"
    },
    {
      "inputs": [
        {
          "internalType": "uint256",
          "name": "",
          "type": "uint256"
        }
      ],
      "name": "shares",
      "outputs": [
        {
          "internalType": "uint256",
          "name": "",
          "type": "uint256"
        }
      ],
      "stateMutability": "view",
      "type": "function"
    },
    {
      "inputs": [
        {
          "internalType": "bytes4",
          "name": "interfaceId",
          "type": "bytes4"
        }
      ],
      "name": "supportsInterface",
      "outputs": [
        {
          "internalType": "bool",
          "name": "",
          "type": "bool"
        }
      ],
      "stateMutability": "view",
      "type": "function"
    },
    {
      "inputs": [],
      "name": "swapRouter",
      "outputs": [
        {
          "internalType": "contract ISwapRouter",
          "name": "",
          "type": "address"
        }
      ],
      "stateMutability": "view",
      "type": "function"
    },
    {
      "inputs": [],
      "name": "symbol",
      "outputs": [
        {
          "internalType": "string",
          "name": "",
          "type": "string"
        }
      ],
      "stateMutability": "view",
      "type": "function"
    },
    {
      "inputs": [
        {
          "internalType": "address",
          "name": "owner",
          "type": "address"
        }
      ],
      "name": "tokenIdOf",
      "outputs": [
        {
          "internalType": "uint256",
          "name": "",
          "type": "uint256"
        }
      ],
      "stateMutability": "view",
      "type": "function"
    },
    {
      "inputs": [
        {
          "internalType": "uint256",
          "name": "tokenId",
          "type": "uint256"
        }
      ],
      "name": "tokenURI",
      "outputs": [
        {
          "internalType": "string",
          "name": "",
          "type": "string"
        }
      ],
      "stateMutability": "view",
      "type": "function"
    },
    {
      "inputs": [
        {
          "internalType": "uint256",
          "name": "",
          "type": "uint256"
        }
      ],
      "name": "tokens",
      "outputs": [
        {
          "internalType": "address",
          "name": "",
          "type": "address"
        }
      ],
      "stateMutability": "view",
      "type": "function"
    },
    {
      "inputs": [],
      "name": "totalSupply",
      "outputs": [
        {
          "internalType": "uint256",
          "name": "",
          "type": "uint256"
        }
      ],
      "stateMutability": "view",
      "type": "function"
    },
    {
      "inputs": [
        {
          "internalType": "address",
          "name": "from",
          "type": "address"
        },
        {
          "internalType": "address",
          "name": "to",
          "type": "address"
        },
        {
          "internalType": "uint256",
          "name": "tokenId",
          "type": "uint256"
        }
      ],
      "name": "transferFrom",
      "outputs": [],
      "stateMutability": "nonpayable",
      "type": "function"
    },
    {
      "inputs": [
        {
          "internalType": "address",
          "name": "newOwner",
          "type": "address"
        }
      ],
      "name": "transferOwnership",
      "outputs": [],
      "stateMutability": "nonpayable",
      "type": "function"
    },
    {
      "inputs": [
        {
          "internalType": "uint256",
          "name": "_nftId",
          "type": "uint256"
        },
        {
          "internalType": "uint256",
          "name": "_amount",
          "type": "uint256"
        }
      ],
      "name": "withdraw",
      "outputs": [],
      "stateMutability": "nonpayable",
      "type": "function"
    },
    {
      "stateMutability": "payable",
      "type": "receive"
    }
  ],
  "bytecode": {
    "object": "0x60c06040526305f5e1006010553480156200001957600080fd5b5060405162005577380380620055778339810160408190526200003c9162000351565b6040518060400160405280600a81526020016914da185c9959119d5b9960b21b81525060405180604001604052806005815260200164534841465560d81b81525062000097620000916200022c60201b60201c565b62000230565b8151620000ac90600190602085019062000280565b508051620000c290600290602084019062000280565b5050506001600160a01b03808416608081905290831660a052600b80546001600160a01b031916821790556040805163313ce56760e01b8152905163313ce567916004808201926020929091908290030181865afa15801562000129573d6000803e3d6000fd5b505050506040513d601f19601f820116820180604052508101906200014f91906200039b565b6200015c90600a620004dc565b600c556040518390829062000171906200030f565b6001600160a01b03928316815291166020820152604001604051809103906000f080158015620001a5573d6000803e3d6000fd5b50600f80546001600160a01b039283166001600160a01b03199182161790915593166000818152600d60205260408120612710600182810191909155815460ff19168117909155600e805491820181559091527fbb7b4a454dc3493923482f07822329ed19e8244eff582cc204f8554c3620c3fd0180549094161790925550620005299050565b3390565b600080546001600160a01b038381166001600160a01b0319831681178455604051919092169283917f8be0079c531659141344cd1fd0a4f28419497f9722a3daafe3b4186f6b6457e09190a35050565b8280546200028e90620004ed565b90600052602060002090601f016020900481019282620002b25760008555620002fd565b82601f10620002cd57805160ff1916838001178555620002fd565b82800160010185558215620002fd579182015b82811115620002fd578251825591602001919060010190620002e0565b506200030b9291506200031d565b5090565b61090e8062004c6983390190565b5b808211156200030b57600081556001016200031e565b80516001600160a01b03811681146200034c57600080fd5b919050565b6000806000606084860312156200036757600080fd5b620003728462000334565b9250620003826020850162000334565b9150620003926040850162000334565b90509250925092565b600060208284031215620003ae57600080fd5b815160ff81168114620003c057600080fd5b9392505050565b634e487b7160e01b600052601160045260246000fd5b600181815b808511156200041e578160001904821115620004025762000402620003c7565b808516156200041057918102915b93841c9390800290620003e2565b509250929050565b6000826200043757506001620004d6565b816200044657506000620004d6565b81600181146200045f57600281146200046a576200048a565b6001915050620004d6565b60ff8411156200047e576200047e620003c7565b50506001821b620004d6565b5060208310610133831016604e8410600b8410161715620004af575081810a620004d6565b620004bb8383620003dd565b8060001904821115620004d257620004d2620003c7565b0290505b92915050565b6000620003c060ff84168362000426565b600181811c908216806200050257607f821691505b6020821081036200052357634e487b7160e01b600052602260045260246000fd5b50919050565b60805160a0516146c6620005a3600039600081816107f50152818161368701526137690152600081816102e50152818161051601528181610c3a01528181610f8b0152818161176b01528181611d9501528181611eab01528181611f0801528181612499015281816129ef01526130e801526146c66000f3fe6080604052600436106102d55760003560e01c8063715018a611610179578063aa6ca808116100d6578063c87b56dd1161008a578063f11b818811610064578063f11b8188146108a0578063f2fde38b146108f1578063f5962e2d1461091157600080fd5b8063c87b56dd14610817578063cb2a0f5614610837578063e985e9c51461085757600080fd5b8063b88d4fde116100bb578063b88d4fde146107ae578063bb0498de146107ce578063c31c9c07146107e357600080fd5b8063aa6ca80814610779578063b6b55f251461079b57600080fd5b806393e5e90f1161012d5780639b306aa1116101125780639b306aa114610717578063a0e67e2b14610737578063a22cb4651461075957600080fd5b806393e5e90f146106e257806395d89b411461070257600080fd5b80637d7c2a1c1161015e5780637d7c2a1c1461068f5780637e609942146106a45780638da5cb5b146106c457600080fd5b8063715018a614610644578063773c02d41461065957600080fd5b8063402824ae116102325780634f64b2be116101e65780636352211e116101c05780636352211e146105e257806367e4ac2c1461060257806370a082311461062457600080fd5b80634f64b2be1461055857806357a858fc146105785780635c9ff291146105a557600080fd5b8063441a3e7011610217578063441a3e70146104e45780634aa4a4fc146105045780634b77c4681461053857600080fd5b8063402824ae146104a457806342842e0e146104c457600080fd5b8063095ea7b3116102895780632226a4c01161026e5780632226a4c01461044257806323b872dd1461045757806326ca291b1461047757600080fd5b8063095ea7b31461040d57806318160ddd1461042d57600080fd5b806306fdde03116102ba57806306fdde0314610389578063081812fc146103ab578063089fe6aa146103e357600080fd5b806301ffc9a714610319578063022914a71461034e57600080fd5b3661031457336001600160a01b037f0000000000000000000000000000000000000000000000000000000000000000161461031257610312613e00565b005b600080fd5b34801561032557600080fd5b50610339610334366004613e5d565b610931565b60405190151581526020015b60405180910390f35b34801561035a57600080fd5b5061037b610369366004613e96565b60096020526000908152604090205481565b604051908152602001610345565b34801561039557600080fd5b5061039e610a16565b6040516103459190613f27565b3480156103b757600080fd5b506103cb6103c6366004613f3a565b610aa8565b6040516001600160a01b039091168152602001610345565b3480156103ef57600080fd5b506103f9610bb881565b60405162ffffff9091168152602001610345565b34801561041957600080fd5b50610312610428366004613f53565b610acf565b34801561043957600080fd5b5061037b610c23565b34801561044e57600080fd5b5061037b610c33565b34801561046357600080fd5b50610312610472366004613f7d565b610c5e565b34801561048357600080fd5b5061037b610492366004613f3a565b60009081526008602052604090205490565b3480156104b057600080fd5b506103cb6104bf366004613f3a565b610d02565b3480156104d057600080fd5b506103126104df366004613f7d565b610d2c565b3480156104f057600080fd5b506103126104ff366004613fb9565b610d47565b34801561051057600080fd5b506103cb7f000000000000000000000000000000000000000000000000000000000000000081565b34801561054457600080fd5b5061037b610553366004613e96565b61102a565b34801561056457600080fd5b506103cb610573366004613f3a565b61108b565b34801561058457600080fd5b5061037b610593366004613f3a565b60086020526000908152604090205481565b3480156105b157600080fd5b506105c56105c0366004613f3a565b61109b565b604080519283526001600160a01b03909116602083015201610345565b3480156105ee57600080fd5b506103cb6105fd366004613f3a565b6110c3565b34801561060e57600080fd5b50610617611128565b6040516103459190613fdb565b34801561063057600080fd5b5061037b61063f366004613e96565b6115e7565b34801561065057600080fd5b50610312611681565b34801561066557600080fd5b5061037b610674366004613e96565b6001600160a01b031660009081526009602052604090205490565b34801561069b57600080fd5b50610312611695565b3480156106b057600080fd5b506103126106bf366004613f53565b611cf6565b3480156106d057600080fd5b506000546001600160a01b03166103cb565b3480156106ee57600080fd5b5061037b6106fd366004613e96565b611f85565b34801561070e57600080fd5b5061039e61213c565b34801561072357600080fd5b5061037b610732366004613e96565b61214b565b34801561074357600080fd5b5061074c612200565b6040516103459190614068565b34801561076557600080fd5b506103126107743660046140cb565b6123ba565b34801561078557600080fd5b5061078e6123c9565b6040516103459190614102565b6103126107a9366004613f3a565b61242a565b3480156107ba57600080fd5b506103126107c936600461417e565b612587565b3480156107da57600080fd5b5061037b612615565b3480156107ef57600080fd5b506103cb7f000000000000000000000000000000000000000000000000000000000000000081565b34801561082357600080fd5b5061039e610832366004613f3a565b612868565b34801561084357600080fd5b50610312610852366004614278565b6128dc565b34801561086357600080fd5b506103396108723660046142b4565b6001600160a01b03918216600090815260066020908152604080832093909416825291909152205460ff1690565b3480156108ac57600080fd5b506108da6108bb366004613e96565b600d602052600090815260409020805460019091015460ff9091169082565b604080519215158352602083019190915201610345565b3480156108fd57600080fd5b5061031261090c366004613e96565b612b4b565b34801561091d57600080fd5b506105c561092c366004613f3a565b612bdb565b60007fffffffff0000000000000000000000000000000000000000000000000000000082167f80ac58cd0000000000000000000000000000000000000000000000000000000014806109c457507fffffffff0000000000000000000000000000000000000000000000000000000082167f5b5e139f00000000000000000000000000000000000000000000000000000000145b80610a1057507f01ffc9a7000000000000000000000000000000000000000000000000000000007fffffffff000000000000000000000000000000000000000000000000000000008316145b92915050565b606060018054610a25906142e7565b80601f0160208091040260200160405190810160405280929190818152602001828054610a51906142e7565b8015610a9e5780601f10610a7357610100808354040283529160200191610a9e565b820191906000526020600020905b815481529060010190602001808311610a8157829003601f168201915b5050505050905090565b6000610ab382612c2b565b506000908152600560205260409020546001600160a01b031690565b6000610ada826110c3565b9050806001600160a01b0316836001600160a01b031603610b685760405162461bcd60e51b815260206004820152602160248201527f4552433732313a20617070726f76616c20746f2063757272656e74206f776e6560448201527f720000000000000000000000000000000000000000000000000000000000000060648201526084015b60405180910390fd5b336001600160a01b0382161480610ba257506001600160a01b038116600090815260066020908152604080832033845290915290205460ff165b610c145760405162461bcd60e51b815260206004820152603d60248201527f4552433732313a20617070726f76652063616c6c6572206973206e6f7420746f60448201527f6b656e206f776e6572206f7220617070726f76656420666f7220616c6c0000006064820152608401610b5f565b610c1e8383612c8f565b505050565b6000610c2e60075490565b905090565b6000610c2e7f000000000000000000000000000000000000000000000000000000000000000061214b565b610c683382612d15565b610cda5760405162461bcd60e51b815260206004820152602d60248201527f4552433732313a2063616c6c6572206973206e6f7420746f6b656e206f776e6560448201527f72206f7220617070726f766564000000000000000000000000000000000000006064820152608401610b5f565b610ce5838383612d93565b6001600160a01b0390911660009081526009602052604090205550565b600a8181548110610d1257600080fd5b6000918252602090912001546001600160a01b0316905081565b610c1e83838360405180602001604052806000815250612587565b8133610d52826110c3565b6001600160a01b031614610da85760405162461bcd60e51b815260206004820152601060248201527f43414c4c45525f4e4f545f4f574e4552000000000000000000000000000000006044820152606401610b5f565b612710821115610e205760405162461bcd60e51b815260206004820152602360248201527f416d6f756e74206d7573742072616e6765206265747765656e203020616e642060448201527f31653400000000000000000000000000000000000000000000000000000000006064820152608401610b5f565b60008381526008602052604081205490610e38612615565b90506000610e468284612fff565b90506000610e5e86610e588587612fff565b90612fff565b905082811115610ed65760405162461bcd60e51b815260206004820152603460248201527f57697468647261776e2076616c7565206d757374206e6f74206265206772656160448201527f746572207468616e20746f74616c2076616c75650000000000000000000000006064820152608401610b5f565b6000610ee28284614363565b90506000610ef08386614363565b9050610efc8582613042565b60006127108903610f0f57506000610f29565b81610f1c6127108561437a565b610f2691906143b7565b90505b60008a8152600860205260408120829055610f426130b5565b600c54610f4f908761437a565b610f5991906143b7565b6040517f2e1a7d4d000000000000000000000000000000000000000000000000000000008152600481018290529091507f00000000000000000000000000000000000000000000000000000000000000006001600160a01b031690632e1a7d4d90602401600060405180830381600087803b158015610fd757600080fd5b505af1158015610feb573d6000803e3d6000fd5b505060405133925083156108fc02915083906000818181858888f1935050505015801561101c573d6000803e3d6000fd5b505050505050505050505050565b6000611035826115e7565b156110825760405162461bcd60e51b815260206004820152601560248201527f5573657220616c72656164792061206d656d62657200000000000000000000006044820152606401610b5f565b610a1082613160565b600e8181548110610d1257600080fd5b600081815260086020526040812054819060006110b7856110c3565b91959194509092505050565b6000818152600360205260408120546001600160a01b031680610a105760405162461bcd60e51b815260206004820152601860248201527f4552433732313a20696e76616c696420746f6b656e20494400000000000000006044820152606401610b5f565b600e5460609060009067ffffffffffffffff8111156111495761114961414f565b6040519080825280602002602001820160405280156111c557816020015b6111b26040518060e0016040528060006001600160a01b0316815260200160001515815260200160008152602001600081526020016000815260200160008152602001600081525090565b8152602001906001900390816111675790505b50905060005b600e548110156115e157600e81815481106111e8576111e86143f2565b9060005260206000200160009054906101000a90046001600160a01b0316828281518110611218576112186143f2565b6020026020010151600001906001600160a01b031690816001600160a01b031681525050600d6000600e8381548110611253576112536143f2565b60009182526020808320909101546001600160a01b03168352820192909252604001902054825160ff90911690839083908110611292576112926143f2565b60200260200101516020019015159081151581525050600d6000600e83815481106112bf576112bf6143f2565b60009182526020808320909101546001600160a01b0316835282019290925260400190206001015482518390839081106112fb576112fb6143f2565b60200260200101516040018181525050600e818154811061131e5761131e6143f2565b6000918252602090912001546040517f70a082310000000000000000000000000000000000000000000000000000000081523060048201526001600160a01b03909116906370a0823190602401602060405180830381865afa158015611388573d6000803e3d6000fd5b505050506040513d601f19601f820116820180604052508101906113ac9190614421565b8282815181106113be576113be6143f2565b60200260200101516060018181525050600e81815481106113e1576113e16143f2565b60009182526020918290200154604080517f313ce56700000000000000000000000000000000000000000000000000000000815290516001600160a01b039092169263313ce567926004808401938290030181865afa158015611448573d6000803e3d6000fd5b505050506040513d601f19601f8201168201806040525081019061146c919061443a565b60ff16828281518110611481576114816143f2565b602090810291909101015160800152600f54600e80546001600160a01b03909216916316345f189190849081106114ba576114ba6143f2565b60009182526020909120015460405160e083901b7fffffffff000000000000000000000000000000000000000000000000000000001681526001600160a01b039091166004820152602401602060405180830381865afa158015611522573d6000803e3d6000fd5b505050506040513d601f19601f820116820180604052508101906115469190614421565b828281518110611558576115586143f2565b602002602001015160a001818152505081818151811061157a5761157a6143f2565b602002602001015160a00151828281518110611598576115986143f2565b6020026020010151606001516115ae919061437a565b8282815181106115c0576115c06143f2565b602090810291909101015160c00152806115d98161445d565b9150506111cb565b50919050565b60006001600160a01b0382166116655760405162461bcd60e51b815260206004820152602960248201527f4552433732313a2061646472657373207a65726f206973206e6f74206120766160448201527f6c6964206f776e657200000000000000000000000000000000000000000000006064820152608401610b5f565b506001600160a01b031660009081526004602052604090205490565b611689613210565b611693600061326a565b565b600061169f612615565b905060006116ab6130b5565b9050600060646116be612710600361437a565b6116c891906143b7565b600e5490915060009067ffffffffffffffff8111156116e9576116e961414f565b60405190808252806020026020018201604052801561175957816020015b6040805160808101825260008082526020808301829052928201819052606082015282527fffffffffffffffffffffffffffffffffffffffffffffffffffffffffffffffff9092019101816117075790505b50905060005b600e54811015611c53577f00000000000000000000000000000000000000000000000000000000000000006001600160a01b0316600e82815481106117a6576117a66143f2565b6000918252602090912001546001600160a01b031614611c41576000612710600d6000600e85815481106117dc576117dc6143f2565b60009182526020808320909101546001600160a01b0316835282019290925260400190206001015461180e908861437a565b61181891906143b7565b600f54600e80549293506000926001600160a01b03909216916316345f18919086908110611848576118486143f2565b60009182526020909120015460405160e083901b7fffffffff000000000000000000000000000000000000000000000000000000001681526001600160a01b039091166004820152602401602060405180830381865afa1580156118b0573d6000803e3d6000fd5b505050506040513d601f19601f820116820180604052508101906118d49190614421565b90506000600e84815481106118eb576118eb6143f2565b6000918252602090912001546040517f70a082310000000000000000000000000000000000000000000000000000000081523060048201526001600160a01b03909116906370a0823190602401602060405180830381865afa158015611955573d6000803e3d6000fd5b505050506040513d601f19601f820116820180604052508101906119799190614421565b90506000600e8581548110611990576119906143f2565b60009182526020918290200154604080517f313ce56700000000000000000000000000000000000000000000000000000000815290516001600160a01b039092169263313ce567926004808401938290030181865afa1580156119f7573d6000803e3d6000fd5b505050506040513d601f19601f82011682018060405250810190611a1b919061443a565b60ff1690506000611a2d82600a6145b5565b611a37848661437a565b611a4191906143b7565b90507f68c20c1a780bf657102be5c5b1bd21e12cec4f77ffd499672317601530fda302600e8781548110611a7757611a776143f2565b9060005260206000200160009054906101000a90046001600160a01b0316848388600d6000600e8d81548110611aaf57611aaf6143f2565b6000918252602080832091909101546001600160a01b039081168452838201949094526040928301909120600101548251979093168752860194909452928401919091526060830152608082015260a00160405180910390a16000611b1689612710614363565b611b20908761437a565b8210158015611b445750611b36896127106145c1565b611b40908761437a565b8211155b90508015611b5757505050505050611c41565b600086831015611bd457611b6b8388614363565b905060008b600c5483611b7e919061437a565b611b8891906143b7565b90506040518060800160405280600115158152602001600015158152602001828152602001888152508a8a81518110611bc357611bc36143f2565b602002602001018190525050611c39565b611bde8784614363565b9050600086611bee86600a6145b5565b611bf8908461437a565b611c0291906143b7565b9050611c37600e8a81548110611c1a57611c1a6143f2565b60009182526020822001546001600160a01b03169083908a6132d2565b505b505050505050505b80611c4b8161445d565b91505061175f565b5060005b600e54811015611cef57818181518110611c7357611c736143f2565b60200260200101516000015115611cdd576000828281518110611c9857611c986143f2565b6020026020010151604001519050611cdb600e8381548110611cbc57611cbc6143f2565b6000918252602090912001546001600160a01b0316826001600a6132d2565b505b80611ce78161445d565b915050611c57565b5050505050565b611cfe613210565b6001600160a01b0382166000908152600d6020526040902054829060ff161515600114611d935760405162461bcd60e51b815260206004820152602660248201527f417373657420646f6573206e6f7420657869737420696e2074686520706f727460448201527f666f6c696f2e00000000000000000000000000000000000000000000000000006064820152608401610b5f565b7f00000000000000000000000000000000000000000000000000000000000000006001600160a01b0316836001600160a01b031603611e3a5760405162461bcd60e51b815260206004820152603160248201527f43616e6e6f74206368616e6765207468652070726f706f7274696f6e206f662060448201527f74686520626173652063757272656e63790000000000000000000000000000006064820152608401610b5f565b6001600160a01b0383166000908152600d602052604081206001015490611e5f610c33565b6001600160a01b0386166000908152600d60205260409020600101859055905081841115611ee457611e918285614363565b611e9b9082614363565b9050611edf816001600160a01b037f0000000000000000000000000000000000000000000000000000000000000000166000908152600d6020526040902060010155565b611f3c565b611eee8483614363565b611ef890826145c1565b9050611f3c816001600160a01b037f0000000000000000000000000000000000000000000000000000000000000000166000908152600d6020526040902060010155565b604080516001600160a01b0387168152602081018690527fb51c0011094dfb717010eb3fac979826c5a5c243d173211895a461152fe5d8eb910160405180910390a15050505050565b6001600160a01b0381166000908152600d6020526040812054829060ff16151560011461201a5760405162461bcd60e51b815260206004820152602660248201527f417373657420646f6573206e6f7420657869737420696e2074686520706f727460448201527f666f6c696f2e00000000000000000000000000000000000000000000000000006064820152608401610b5f565b6040517f70a082310000000000000000000000000000000000000000000000000000000081523060048201526000906001600160a01b038516906370a0823190602401602060405180830381865afa15801561207a573d6000803e3d6000fd5b505050506040513d601f19601f8201168201806040525081019061209e9190614421565b600f546040517f16345f180000000000000000000000000000000000000000000000000000000081526001600160a01b0387811660048301529293508392909116906316345f1890602401602060405180830381865afa158015612106573d6000803e3d6000fd5b505050506040513d601f19601f8201168201806040525081019061212a9190614421565b612134919061437a565b949350505050565b606060028054610a25906142e7565b6001600160a01b0381166000908152600d6020526040812054829060ff1615156001146121e05760405162461bcd60e51b815260206004820152602660248201527f417373657420646f6573206e6f7420657869737420696e2074686520706f727460448201527f666f6c696f2e00000000000000000000000000000000000000000000000000006064820152608401610b5f565b50506001600160a01b03166000908152600d602052604090206001015490565b600a5460609060009067ffffffffffffffff8111156122215761222161414f565b60405190808252806020026020018201604052801561227f57816020015b61226c604051806060016040528060006001600160a01b0316815260200160008152602001600081525090565b81526020019060019003908161223f5790505b50905060005b600a548110156115e157600a81815481106122a2576122a26143f2565b9060005260206000200160009054906101000a90046001600160a01b03168282815181106122d2576122d26143f2565b6020026020010151600001906001600160a01b031690816001600160a01b03168152505061233282828151811061230b5761230b6143f2565b6020026020010151600001516001600160a01b031660009081526009602052604090205490565b828281518110612344576123446143f2565b60200260200101516020018181525050612387828281518110612369576123696143f2565b60200260200101516020015160009081526008602052604090205490565b828281518110612399576123996143f2565b602090810291909101015160400152806123b28161445d565b915050612285565b6123c53383836133aa565b5050565b6060600e805480602002602001604051908101604052809291908181526020018280548015610a9e57602002820191906000526020600020905b81546001600160a01b03168152600190910190602001808311612403575050505050905090565b8033612435826110c3565b6001600160a01b03161461248b5760405162461bcd60e51b815260206004820152601060248201527f43414c4c45525f4e4f545f4f574e4552000000000000000000000000000000006044820152606401610b5f565b6000612495612615565b90507f00000000000000000000000000000000000000000000000000000000000000006001600160a01b031663d0e30db0346040518263ffffffff1660e01b81526004016000604051808303818588803b1580156124f257600080fd5b505af1158015612506573d6000803e3d6000fd5b50505050506000612515612615565b905060006125238383614363565b90506000836000036125385750612710612552565b826125456127108461437a565b61254f91906143b7565b90505b61255c8484613042565b6000868152600860205260408120805483929061257a9084906145c1565b9091555050505050505050565b6125913383612d15565b6126035760405162461bcd60e51b815260206004820152602d60248201527f4552433732313a2063616c6c6572206973206e6f7420746f6b656e206f776e6560448201527f72206f7220617070726f766564000000000000000000000000000000000000006064820152608401610b5f565b61260f84848484613496565b50505050565b600080805b600e548110156115e1576000600e8281548110612639576126396143f2565b6000918252602090912001546040517f70a082310000000000000000000000000000000000000000000000000000000081523060048201526001600160a01b03909116906370a0823190602401602060405180830381865afa1580156126a3573d6000803e3d6000fd5b505050506040513d601f19601f820116820180604052508101906126c79190614421565b90506000600e83815481106126de576126de6143f2565b60009182526020918290200154604080517f313ce56700000000000000000000000000000000000000000000000000000000815290516001600160a01b039092169263313ce567926004808401938290030181865afa158015612745573d6000803e3d6000fd5b505050506040513d601f19601f82011682018060405250810190612769919061443a565b60ff169050600061277b82600a6145b5565b600f54600e805486926001600160a01b0316916316345f1891899081106127a4576127a46143f2565b60009182526020909120015460405160e083901b7fffffffff000000000000000000000000000000000000000000000000000000001681526001600160a01b039091166004820152602401602060405180830381865afa15801561280c573d6000803e3d6000fd5b505050506040513d601f19601f820116820180604052508101906128309190614421565b61283a919061437a565b61284491906143b7565b905061285081866145c1565b945050505080806128609061445d565b91505061261a565b606061287382612c2b565b600061288a60408051602081019091526000815290565b905060008151116128aa57604051806020016040528060008152506128d5565b806128b48461351f565b6040516020016128c59291906145d9565b6040516020818303038152906040525b9392505050565b6128e4613210565b6001600160a01b0383166000908152600d6020526040902054839060ff16156129755760405162461bcd60e51b815260206004820152602660248201527f417373657420616c72656164792065786973747320696e2074686520706f727460448201527f666f6c696f2e00000000000000000000000000000000000000000000000000006064820152608401610b5f565b61297d610c33565b8311156129cc5760405162461bcd60e51b815260206004820152601c60248201527f52454d41494e494e475f50524f504f5254494f4e5f544f4f5f4c4f57000000006044820152606401610b5f565b60006129d6610c33565b9050612a236129e58583614363565b6001600160a01b037f0000000000000000000000000000000000000000000000000000000000000000166000908152600d6020526040902060010155565b600f546040517fe8a97a3e0000000000000000000000000000000000000000000000000000000081526001600160a01b03878116600483015285811660248301529091169063e8a97a3e90604401600060405180830381600087803b158015612a8b57600080fd5b505af1158015612a9f573d6000803e3d6000fd5b5050506001600160a01b039095166000818152600d6020526040812060018082019790975580547fffffffffffffffffffffffffffffffffffffffffffffffffffffffffffffff001687179055600e8054968701815590527fbb7b4a454dc3493923482f07822329ed19e8244eff582cc204f8554c3620c3fd90940180547fffffffffffffffffffffffff00000000000000000000000000000000000000001690941790935550505050565b612b53613210565b6001600160a01b038116612bcf5760405162461bcd60e51b815260206004820152602660248201527f4f776e61626c653a206e6577206f776e657220697320746865207a65726f206160448201527f64647265737300000000000000000000000000000000000000000000000000006064820152608401610b5f565b612bd88161326a565b50565b60008181526008602052604081205481906000612bf7856110c3565b90506000612c03612615565b90506000612710612c14838661437a565b612c1e91906143b7565b9792965091945050505050565b6000818152600360205260409020546001600160a01b0316612bd85760405162461bcd60e51b815260206004820152601860248201527f4552433732313a20696e76616c696420746f6b656e20494400000000000000006044820152606401610b5f565b600081815260056020526040902080547fffffffffffffffffffffffff0000000000000000000000000000000000000000166001600160a01b0384169081179091558190612cdc826110c3565b6001600160a01b03167f8c5be1e5ebec7d5bd14f71427d1e84f3dd0314c0f7b2291e5b200ac8c7c3b92560405160405180910390a45050565b600080612d21836110c3565b9050806001600160a01b0316846001600160a01b03161480612d6857506001600160a01b0380821660009081526006602090815260408083209388168352929052205460ff165b806121345750836001600160a01b0316612d8184610aa8565b6001600160a01b031614949350505050565b826001600160a01b0316612da6826110c3565b6001600160a01b031614612e225760405162461bcd60e51b815260206004820152602560248201527f4552433732313a207472616e736665722066726f6d20696e636f72726563742060448201527f6f776e65720000000000000000000000000000000000000000000000000000006064820152608401610b5f565b6001600160a01b038216612e9d5760405162461bcd60e51b8152602060048201526024808201527f4552433732313a207472616e7366657220746f20746865207a65726f2061646460448201527f72657373000000000000000000000000000000000000000000000000000000006064820152608401610b5f565b612eaa83838360016135dd565b826001600160a01b0316612ebd826110c3565b6001600160a01b031614612f395760405162461bcd60e51b815260206004820152602560248201527f4552433732313a207472616e736665722066726f6d20696e636f72726563742060448201527f6f776e65720000000000000000000000000000000000000000000000000000006064820152608401610b5f565b600081815260056020908152604080832080547fffffffffffffffffffffffff00000000000000000000000000000000000000009081169091556001600160a01b038781168086526004855283862080547fffffffffffffffffffffffffffffffffffffffffffffffffffffffffffffffff01905590871680865283862080546001019055868652600390945282852080549092168417909155905184937fddf252ad1be2c89b69c2b068fc378daa952ba7f163c4a11628f55a4df523b3ef91a4505050565b600081157fffffffffffffffffffffffffffffffffffffffffffffffffffffffffffffec778390048411151761303457600080fd5b506127109102611388010490565b81158061304d575080155b15613056575050565b60015b613061610c23565b8111610c1e57600081815260086020526040812054829184613083838861437a565b61308d91906143b7565b60009384526008602052604090932092909255508190506130ad8161445d565b915050613059565b600f546040517f16345f180000000000000000000000000000000000000000000000000000000081526001600160a01b037f00000000000000000000000000000000000000000000000000000000000000008116600483015260009283929116906316345f1890602401602060405180830381865afa15801561313c573d6000803e3d6000fd5b505050506040513d601f19601f82011682018060405250810190610a109190614421565b6000613170600780546001019055565b600061317b60075490565b90506131878382613665565b60008181526008602090815260408083208390556001600160a01b039095168083526009909152938120829055600a805460018101825591527fc65a7bb8d6351c1cf70c95a316cc6a92839c986682d98bc35f958f4883f9d2a80180547fffffffffffffffffffffffff0000000000000000000000000000000000000000169093179092555090565b6000546001600160a01b031633146116935760405162461bcd60e51b815260206004820181905260248201527f4f776e61626c653a2063616c6c6572206973206e6f7420746865206f776e65726044820152606401610b5f565b600080546001600160a01b038381167fffffffffffffffffffffffff0000000000000000000000000000000000000000831681178455604051919092169283917f8be0079c531659141344cd1fd0a4f28419497f9722a3daafe3b4186f6b6457e09190a35050565b811561334057600b546132f0906001600160a01b031685858461367f565b50604080516001600160a01b0386168152602081018590529081018290527f1cbc5ab135991bd2b6a4b034a04aa2aa086dac1371cb9b16b8b5e2ed6b036bed9060600160405180910390a161260f565b600b546133599085906001600160a01b0316858461367f565b50604080516001600160a01b0386168152602081018590529081018290527fed7a144fad14804d5c249145e3e0e2b63a9eb455b76aee5bc92d711e9bba3e4a9060600160405180910390a150505050565b816001600160a01b0316836001600160a01b03160361340b5760405162461bcd60e51b815260206004820152601960248201527f4552433732313a20617070726f766520746f2063616c6c6572000000000000006044820152606401610b5f565b6001600160a01b0383811660008181526006602090815260408083209487168084529482529182902080547fffffffffffffffffffffffffffffffffffffffffffffffffffffffffffffff001686151590811790915591519182527f17307eab39ab6107e8899845ad3d59bd9653f200f220920489ca2b5937696c31910160405180910390a3505050565b6134a1848484612d93565b6134ad848484846137e3565b61260f5760405162461bcd60e51b815260206004820152603260248201527f4552433732313a207472616e7366657220746f206e6f6e20455243373231526560448201527f63656976657220696d706c656d656e74657200000000000000000000000000006064820152608401610b5f565b6060600061352c836139a2565b600101905060008167ffffffffffffffff81111561354c5761354c61414f565b6040519080825280601f01601f191660200182016040528015613576576020820181803683370190505b5090508181016020015b7fffffffffffffffffffffffffffffffffffffffffffffffffffffffffffffffff017f3031323334353637383961626364656600000000000000000000000000000000600a86061a8153600a850494508461358057509392505050565b600181111561260f576001600160a01b03841615613623576001600160a01b0384166000908152600460205260408120805483929061361d908490614363565b90915550505b6001600160a01b0383161561260f576001600160a01b0383166000908152600460205260408120805483929061365a9084906145c1565b909155505050505050565b6123c5828260405180602001604052806000815250613a84565b60006136ac857f000000000000000000000000000000000000000000000000000000000000000085613b0d565b60408051610100810182526001600160a01b03878116825286811660208301908152610bb88385019081523060608501908152426080860190815260a086018a815260c087018a8152600060e0890190815298517f414bf389000000000000000000000000000000000000000000000000000000008152885188166004820152955187166024870152935162ffffff1660448601529151851660648501525160848401525160a48301525160c48201529251811660e484015290917f00000000000000000000000000000000000000000000000000000000000000009091169063414bf38990610104016020604051808303816000875af11580156137b5573d6000803e3d6000fd5b505050506040513d601f19601f820116820180604052508101906137d99190614421565b9695505050505050565b60006001600160a01b0384163b15613997576040517f150b7a020000000000000000000000000000000000000000000000000000000081526001600160a01b0385169063150b7a0290613840903390899088908890600401614608565b6020604051808303816000875af1925050508015613899575060408051601f3d9081017fffffffffffffffffffffffffffffffffffffffffffffffffffffffffffffffe01682019092526138969181019061463a565b60015b61394c573d8080156138c7576040519150601f19603f3d011682016040523d82523d6000602084013e6138cc565b606091505b5080516000036139445760405162461bcd60e51b815260206004820152603260248201527f4552433732313a207472616e7366657220746f206e6f6e20455243373231526560448201527f63656976657220696d706c656d656e74657200000000000000000000000000006064820152608401610b5f565b805181602001fd5b7fffffffff00000000000000000000000000000000000000000000000000000000167f150b7a0200000000000000000000000000000000000000000000000000000000149050612134565b506001949350505050565b6000807a184f03e93ff9f4daa797ed6e38ed64bf6a1f01000000000000000083106139eb577a184f03e93ff9f4daa797ed6e38ed64bf6a1f010000000000000000830492506040015b6d04ee2d6d415b85acef81000000008310613a17576d04ee2d6d415b85acef8100000000830492506020015b662386f26fc100008310613a3557662386f26fc10000830492506010015b6305f5e1008310613a4d576305f5e100830492506008015b6127108310613a6157612710830492506004015b60648310613a73576064830492506002015b600a8310610a105760010192915050565b613a8e8383613c4f565b613a9b60008484846137e3565b610c1e5760405162461bcd60e51b815260206004820152603260248201527f4552433732313a207472616e7366657220746f206e6f6e20455243373231526560448201527f63656976657220696d706c656d656e74657200000000000000000000000000006064820152608401610b5f565b604080516001600160a01b038481166024830152604480830185905283518084039091018152606490920183526020820180517bffffffffffffffffffffffffffffffffffffffffffffffffffffffff167f095ea7b3000000000000000000000000000000000000000000000000000000001790529151600092839290871691613b979190614657565b6000604051808303816000865af19150503d8060008114613bd4576040519150601f19603f3d011682016040523d82523d6000602084013e613bd9565b606091505b5091509150818015613c03575080511580613c03575080806020019051810190613c039190614673565b611cef5760405162461bcd60e51b815260206004820152600260248201527f53410000000000000000000000000000000000000000000000000000000000006044820152606401610b5f565b6001600160a01b038216613ca55760405162461bcd60e51b815260206004820181905260248201527f4552433732313a206d696e7420746f20746865207a65726f20616464726573736044820152606401610b5f565b6000818152600360205260409020546001600160a01b031615613d0a5760405162461bcd60e51b815260206004820152601c60248201527f4552433732313a20746f6b656e20616c7265616479206d696e746564000000006044820152606401610b5f565b613d186000838360016135dd565b6000818152600360205260409020546001600160a01b031615613d7d5760405162461bcd60e51b815260206004820152601c60248201527f4552433732313a20746f6b656e20616c7265616479206d696e746564000000006044820152606401610b5f565b6001600160a01b038216600081815260046020908152604080832080546001019055848352600390915280822080547fffffffffffffffffffffffff0000000000000000000000000000000000000000168417905551839291907fddf252ad1be2c89b69c2b068fc378daa952ba7f163c4a11628f55a4df523b3ef908290a45050565b7f4e487b7100000000000000000000000000000000000000000000000000000000600052600160045260246000fd5b7fffffffff0000000000000000000000000000000000000000000000000000000081168114612bd857600080fd5b600060208284031215613e6f57600080fd5b81356128d581613e2f565b80356001600160a01b0381168114613e9157600080fd5b919050565b600060208284031215613ea857600080fd5b6128d582613e7a565b60005b83811015613ecc578181015183820152602001613eb4565b8381111561260f5750506000910152565b60008151808452613ef5816020860160208601613eb1565b601f017fffffffffffffffffffffffffffffffffffffffffffffffffffffffffffffffe0169290920160200192915050565b6020815260006128d56020830184613edd565b600060208284031215613f4c57600080fd5b5035919050565b60008060408385031215613f6657600080fd5b613f6f83613e7a565b946020939093013593505050565b600080600060608486031215613f9257600080fd5b613f9b84613e7a565b9250613fa960208501613e7a565b9150604084013590509250925092565b60008060408385031215613fcc57600080fd5b50508035926020909101359150565b602080825282518282018190526000919060409081850190868401855b8281101561405b57815180516001600160a01b03168552868101511515878601528581015186860152606080820151908601526080808201519086015260a0808201519086015260c0908101519085015260e09093019290850190600101613ff8565b5091979650505050505050565b602080825282518282018190526000919060409081850190868401855b8281101561405b57815180516001600160a01b0316855286810151878601528501518585015260609093019290850190600101614085565b8015158114612bd857600080fd5b600080604083850312156140de57600080fd5b6140e783613e7a565b915060208301356140f7816140bd565b809150509250929050565b6020808252825182820181905260009190848201906040850190845b818110156141435783516001600160a01b03168352928401929184019160010161411e565b50909695505050505050565b7f4e487b7100000000000000000000000000000000000000000000000000000000600052604160045260246000fd5b6000806000806080858703121561419457600080fd5b61419d85613e7a565b93506141ab60208601613e7a565b925060408501359150606085013567ffffffffffffffff808211156141cf57600080fd5b818701915087601f8301126141e357600080fd5b8135818111156141f5576141f561414f565b604051601f82017fffffffffffffffffffffffffffffffffffffffffffffffffffffffffffffffe0908116603f0116810190838211818310171561423b5761423b61414f565b816040528281528a602084870101111561425457600080fd5b82602086016020830137600060208483010152809550505050505092959194509250565b60008060006060848603121561428d57600080fd5b61429684613e7a565b9250602084013591506142ab60408501613e7a565b90509250925092565b600080604083850312156142c757600080fd5b6142d083613e7a565b91506142de60208401613e7a565b90509250929050565b600181811c908216806142fb57607f821691505b6020821081036115e1577f4e487b7100000000000000000000000000000000000000000000000000000000600052602260045260246000fd5b7f4e487b7100000000000000000000000000000000000000000000000000000000600052601160045260246000fd5b60008282101561437557614375614334565b500390565b6000817fffffffffffffffffffffffffffffffffffffffffffffffffffffffffffffffff04831182151516156143b2576143b2614334565b500290565b6000826143ed577f4e487b7100000000000000000000000000000000000000000000000000000000600052601260045260246000fd5b500490565b7f4e487b7100000000000000000000000000000000000000000000000000000000600052603260045260246000fd5b60006020828403121561443357600080fd5b5051919050565b60006020828403121561444c57600080fd5b815160ff811681146128d557600080fd5b60007fffffffffffffffffffffffffffffffffffffffffffffffffffffffffffffffff820361448e5761448e614334565b5060010190565b600181815b808511156144ee57817fffffffffffffffffffffffffffffffffffffffffffffffffffffffffffffffff048211156144d4576144d4614334565b808516156144e157918102915b93841c939080029061449a565b509250929050565b60008261450557506001610a10565b8161451257506000610a10565b816001811461452857600281146145325761454e565b6001915050610a10565b60ff84111561454357614543614334565b50506001821b610a10565b5060208310610133831016604e8410600b8410161715614571575081810a610a10565b61457b8383614495565b807fffffffffffffffffffffffffffffffffffffffffffffffffffffffffffffffff048211156145ad576145ad614334565b029392505050565b60006128d583836144f6565b600082198211156145d4576145d4614334565b500190565b600083516145eb818460208801613eb1565b8351908301906145ff818360208801613eb1565b01949350505050565b60006001600160a01b038087168352808616602084015250836040830152608060608301526137d96080830184613edd565b60006020828403121561464c57600080fd5b81516128d581613e2f565b60008251614669818460208701613eb1565b9190910192915050565b60006020828403121561468557600080fd5b81516128d5816140bd56fea2646970667358221220ff49bcea4665b4b45deb24bc2f9cd5ef32f54490b896a19f7c99e9029d1196d164736f6c634300080e0033608060405234801561001057600080fd5b5060405161090e38038061090e83398101604081905261002f916100d5565b61003833610069565b6001600160a01b03918216600090815260016020526040902080546001600160a01b03191691909216179055610108565b600080546001600160a01b038381166001600160a01b0319831681178455604051919092169283917f8be0079c531659141344cd1fd0a4f28419497f9722a3daafe3b4186f6b6457e09190a35050565b80516001600160a01b03811681146100d057600080fd5b919050565b600080604083850312156100e857600080fd5b6100f1836100b9565b91506100ff602084016100b9565b90509250929050565b6107f7806101176000396000f3fe608060405234801561001057600080fd5b506004361061007d5760003560e01c80638da5cb5b1161005b5780638da5cb5b146100ea578063e8a97a3e14610108578063f2fde38b1461011b578063fceb00241461012e57600080fd5b806316345f18146100825780635b6cca80146100a8578063715018a6146100e0575b600080fd5b610095610090366004610702565b610141565b6040519081526020015b60405180910390f35b6100bb6100b6366004610702565b610287565b60405173ffffffffffffffffffffffffffffffffffffffff909116815260200161009f565b6100e8610346565b005b60005473ffffffffffffffffffffffffffffffffffffffff166100bb565b6100e8610116366004610724565b61035a565b6100e8610129366004610702565b610447565b6100e861013c366004610702565b6104fe565b73ffffffffffffffffffffffffffffffffffffffff80821660009081526001602052604081205490918391166101d8576040517f08c379a000000000000000000000000000000000000000000000000000000000815260206004820152601a60248201527f5072696365206665656420646f6573206e6f742065786973742e00000000000060448201526064015b60405180910390fd5b73ffffffffffffffffffffffffffffffffffffffff8084166000908152600160205260408082205481517ffeaf968c00000000000000000000000000000000000000000000000000000000815291519293169163feaf968c9160048082019260a0929091908290030181865afa158015610256573d6000803e3d6000fd5b505050506040513d601f19601f8201168201806040525081019061027a9190610771565b5091979650505050505050565b73ffffffffffffffffffffffffffffffffffffffff8082166000908152600160205260408120549091839116610319576040517f08c379a000000000000000000000000000000000000000000000000000000000815260206004820152601a60248201527f5072696365206665656420646f6573206e6f742065786973742e00000000000060448201526064016101cf565b505073ffffffffffffffffffffffffffffffffffffffff9081166000908152600160205260409020541690565b61034e6105e3565b6103586000610664565b565b73ffffffffffffffffffffffffffffffffffffffff808316600090815260016020526040902054839116156103eb576040517f08c379a000000000000000000000000000000000000000000000000000000000815260206004820152601a60248201527f5072696365206665656420616c7265616479206578697374732e00000000000060448201526064016101cf565b6103f36105e3565b5073ffffffffffffffffffffffffffffffffffffffff918216600090815260016020526040902080547fffffffffffffffffffffffff00000000000000000000000000000000000000001691909216179055565b61044f6105e3565b73ffffffffffffffffffffffffffffffffffffffff81166104f2576040517f08c379a000000000000000000000000000000000000000000000000000000000815260206004820152602660248201527f4f776e61626c653a206e6577206f776e657220697320746865207a65726f206160448201527f646472657373000000000000000000000000000000000000000000000000000060648201526084016101cf565b6104fb81610664565b50565b73ffffffffffffffffffffffffffffffffffffffff80821660009081526001602052604090205482911661058e576040517f08c379a000000000000000000000000000000000000000000000000000000000815260206004820152601a60248201527f5072696365206665656420646f6573206e6f742065786973742e00000000000060448201526064016101cf565b6105966105e3565b5073ffffffffffffffffffffffffffffffffffffffff16600090815260016020526040902080547fffffffffffffffffffffffff0000000000000000000000000000000000000000169055565b60005473ffffffffffffffffffffffffffffffffffffffff163314610358576040517f08c379a000000000000000000000000000000000000000000000000000000000815260206004820181905260248201527f4f776e61626c653a2063616c6c6572206973206e6f7420746865206f776e657260448201526064016101cf565b6000805473ffffffffffffffffffffffffffffffffffffffff8381167fffffffffffffffffffffffff0000000000000000000000000000000000000000831681178455604051919092169283917f8be0079c531659141344cd1fd0a4f28419497f9722a3daafe3b4186f6b6457e09190a35050565b803573ffffffffffffffffffffffffffffffffffffffff811681146106fd57600080fd5b919050565b60006020828403121561071457600080fd5b61071d826106d9565b9392505050565b6000806040838503121561073757600080fd5b610740836106d9565b915061074e602084016106d9565b90509250929050565b805169ffffffffffffffffffff811681146106fd57600080fd5b600080600080600060a0868803121561078957600080fd5b61079286610757565b94506020860151935060408601519250606086015191506107b560808701610757565b9050929550929590935056fea2646970667358221220a52b81c8b58fb846a90f5000713a3a0a0e4e18d23b20dcf1ece44bbf6244090a64736f6c634300080e0033",
    "linkReferences": {}
  },
  "methodIdentifiers": {
    "WETH9()": "4aa4a4fc",
    "addAsset(address,uint256,address)": "cb2a0f56",
    "approve(address,uint256)": "095ea7b3",
    "assets(address)": "f11b8188",
    "balanceOf(address)": "70a08231",
    "changeAssetProportion(address,uint256)": "7e609942",
    "deposit(uint256)": "b6b55f25",
    "getApproved(uint256)": "081812fc",
    "getAssetProportion(address)": "9b306aa1",
    "getAssetValue(address)": "93e5e90f",
    "getAssets()": "67e4ac2c",
    "getNFTShare(uint256)": "5c9ff291",
    "getNFTValue(uint256)": "f5962e2d",
    "getOwners()": "a0e67e2b",
    "getPortfolioValue()": "bb0498de",
    "getRemainingProportion()": "2226a4c0",
    "getTokens()": "aa6ca808",
    "invite(address)": "4b77c468",
    "isApprovedForAll(address,address)": "e985e9c5",
    "name()": "06fdde03",
    "owner()": "8da5cb5b",
    "ownerOf(uint256)": "6352211e",
    "owners(address)": "022914a7",
    "ownersList(uint256)": "402824ae",
    "poolFee()": "089fe6aa",
    "rebalance()": "7d7c2a1c",
    "renounceOwnership()": "715018a6",
    "safeTransferFrom(address,address,uint256)": "42842e0e",
    "safeTransferFrom(address,address,uint256,bytes)": "b88d4fde",
    "setApprovalForAll(address,bool)": "a22cb465",
    "shareOf(uint256)": "26ca291b",
    "shares(uint256)": "57a858fc",
    "supportsInterface(bytes4)": "01ffc9a7",
    "swapRouter()": "c31c9c07",
    "symbol()": "95d89b41",
    "tokenIdOf(address)": "773c02d4",
    "tokenURI(uint256)": "c87b56dd",
    "tokens(uint256)": "4f64b2be",
    "totalSupply()": "18160ddd",
    "transferFrom(address,address,uint256)": "23b872dd",
    "transferOwnership(address)": "f2fde38b",
    "withdraw(uint256,uint256)": "441a3e70"
  },
  "id": 37
}