{
  "abi": [
    {
      "inputs": [
        {
          "internalType": "address",
          "name": "_weth",
          "type": "address"
        },
        {
          "internalType": "address",
          "name": "_swapRouter",
          "type": "address"
        },
        {
          "internalType": "address",
          "name": "_priceFeed",
          "type": "address"
        }
      ],
      "stateMutability": "nonpayable",
      "type": "constructor"
    },
    {
      "anonymous": false,
      "inputs": [
        {
          "indexed": true,
          "internalType": "address",
          "name": "owner",
          "type": "address"
        },
        {
          "indexed": true,
          "internalType": "address",
          "name": "approved",
          "type": "address"
        },
        {
          "indexed": true,
          "internalType": "uint256",
          "name": "tokenId",
          "type": "uint256"
        }
      ],
      "name": "Approval",
      "type": "event"
    },
    {
      "anonymous": false,
      "inputs": [
        {
          "indexed": true,
          "internalType": "address",
          "name": "owner",
          "type": "address"
        },
        {
          "indexed": true,
          "internalType": "address",
          "name": "operator",
          "type": "address"
        },
        {
          "indexed": false,
          "internalType": "bool",
          "name": "approved",
          "type": "bool"
        }
      ],
      "name": "ApprovalForAll",
      "type": "event"
    },
    {
      "anonymous": false,
      "inputs": [
        {
          "indexed": false,
          "internalType": "address",
          "name": "token",
          "type": "address"
        },
        {
          "indexed": false,
          "internalType": "uint256",
          "name": "proportion",
          "type": "uint256"
        }
      ],
      "name": "AssetProportionChanged",
      "type": "event"
    },
    {
      "anonymous": false,
      "inputs": [
        {
          "indexed": false,
          "internalType": "address",
          "name": "token",
          "type": "address"
        },
        {
          "indexed": false,
          "internalType": "uint256",
          "name": "balance",
          "type": "uint256"
        },
        {
          "indexed": false,
          "internalType": "uint256",
          "name": "value",
          "type": "uint256"
        },
        {
          "indexed": false,
          "internalType": "uint256",
          "name": "required_value",
          "type": "uint256"
        },
        {
          "indexed": false,
          "internalType": "uint256",
          "name": "proportion",
          "type": "uint256"
        }
      ],
      "name": "AssetState",
      "type": "event"
    },
    {
      "anonymous": false,
      "inputs": [
        {
          "indexed": false,
          "internalType": "address",
          "name": "token",
          "type": "address"
        },
        {
          "indexed": false,
          "internalType": "uint256",
          "name": "amount",
          "type": "uint256"
        },
        {
          "indexed": false,
          "internalType": "uint256",
          "name": "minOut",
          "type": "uint256"
        }
      ],
      "name": "Buy",
      "type": "event"
    },
    {
      "anonymous": false,
      "inputs": [
        {
          "indexed": true,
          "internalType": "address",
          "name": "previousOwner",
          "type": "address"
        },
        {
          "indexed": true,
          "internalType": "address",
          "name": "newOwner",
          "type": "address"
        }
      ],
      "name": "OwnershipTransferred",
      "type": "event"
    },
    {
      "anonymous": false,
      "inputs": [
        {
          "indexed": false,
          "internalType": "address",
          "name": "token",
          "type": "address"
        },
        {
          "indexed": false,
          "internalType": "uint256",
          "name": "amount",
          "type": "uint256"
        },
        {
          "indexed": false,
          "internalType": "uint256",
          "name": "minOut",
          "type": "uint256"
        }
      ],
      "name": "Sell",
      "type": "event"
    },
    {
      "anonymous": false,
      "inputs": [
        {
          "indexed": true,
          "internalType": "address",
          "name": "from",
          "type": "address"
        },
        {
          "indexed": true,
          "internalType": "address",
          "name": "to",
          "type": "address"
        },
        {
          "indexed": true,
          "internalType": "uint256",
          "name": "tokenId",
          "type": "uint256"
        }
      ],
      "name": "Transfer",
      "type": "event"
    },
    {
      "inputs": [],
      "name": "WETH9",
      "outputs": [
        {
          "internalType": "contract IWETH9",
          "name": "",
          "type": "address"
        }
      ],
      "stateMutability": "view",
      "type": "function"
    },
    {
      "inputs": [
        {
          "internalType": "address",
          "name": "_token",
          "type": "address"
        },
        {
          "internalType": "uint256",
          "name": "_proportion",
          "type": "uint256"
        },
        {
          "internalType": "address",
          "name": "_priceFeed",
          "type": "address"
        }
      ],
      "name": "addAsset",
      "outputs": [],
      "stateMutability": "nonpayable",
      "type": "function"
    },
    {
      "inputs": [
        {
          "internalType": "address",
          "name": "to",
          "type": "address"
        },
        {
          "internalType": "uint256",
          "name": "tokenId",
          "type": "uint256"
        }
      ],
      "name": "approve",
      "outputs": [],
      "stateMutability": "nonpayable",
      "type": "function"
    },
    {
      "inputs": [
        {
          "internalType": "address",
          "name": "",
          "type": "address"
        }
      ],
      "name": "assets",
      "outputs": [
        {
          "internalType": "bool",
          "name": "active",
          "type": "bool"
        },
        {
          "internalType": "uint256",
          "name": "proportion",
          "type": "uint256"
        }
      ],
      "stateMutability": "view",
      "type": "function"
    },
    {
      "inputs": [
        {
          "internalType": "address",
          "name": "owner",
          "type": "address"
        }
      ],
      "name": "balanceOf",
      "outputs": [
        {
          "internalType": "uint256",
          "name": "",
          "type": "uint256"
        }
      ],
      "stateMutability": "view",
      "type": "function"
    },
    {
      "inputs": [
        {
          "internalType": "address",
          "name": "_token",
          "type": "address"
        },
        {
          "internalType": "uint256",
          "name": "_proportion",
          "type": "uint256"
        }
      ],
      "name": "changeAssetProportion",
      "outputs": [],
      "stateMutability": "nonpayable",
      "type": "function"
    },
    {
      "inputs": [
        {
          "internalType": "uint256",
          "name": "_nftId",
          "type": "uint256"
        }
      ],
      "name": "deposit",
      "outputs": [],
      "stateMutability": "payable",
      "type": "function"
    },
    {
      "inputs": [
        {
          "internalType": "uint256",
          "name": "tokenId",
          "type": "uint256"
        }
      ],
      "name": "getApproved",
      "outputs": [
        {
          "internalType": "address",
          "name": "",
          "type": "address"
        }
      ],
      "stateMutability": "view",
      "type": "function"
    },
    {
      "inputs": [
        {
          "internalType": "address",
          "name": "_token",
          "type": "address"
        }
      ],
      "name": "getAssetProportion",
      "outputs": [
        {
          "internalType": "uint256",
          "name": "",
          "type": "uint256"
        }
      ],
      "stateMutability": "view",
      "type": "function"
    },
    {
      "inputs": [
        {
          "internalType": "address",
          "name": "_token",
          "type": "address"
        }
      ],
      "name": "getAssetValue",
      "outputs": [
        {
          "internalType": "uint256",
          "name": "",
          "type": "uint256"
        }
      ],
      "stateMutability": "view",
      "type": "function"
    },
    {
      "inputs": [
        {
          "internalType": "uint256",
          "name": "_nftId",
          "type": "uint256"
        }
      ],
      "name": "getNFTShare",
      "outputs": [
        {
          "internalType": "uint256",
          "name": "",
          "type": "uint256"
        },
        {
          "internalType": "address",
          "name": "",
          "type": "address"
        }
      ],
      "stateMutability": "view",
      "type": "function"
    },
    {
      "inputs": [
        {
          "internalType": "uint256",
          "name": "_nftId",
          "type": "uint256"
        }
      ],
      "name": "getNFTValue",
      "outputs": [
        {
          "internalType": "uint256",
          "name": "",
          "type": "uint256"
        },
        {
          "internalType": "address",
          "name": "",
          "type": "address"
        }
      ],
      "stateMutability": "view",
      "type": "function"
    },
    {
      "inputs": [],
      "name": "getPortfolioValue",
      "outputs": [
        {
          "internalType": "uint256",
          "name": "",
          "type": "uint256"
        }
      ],
      "stateMutability": "view",
      "type": "function"
    },
    {
      "inputs": [],
      "name": "getRemainingProportion",
      "outputs": [
        {
          "internalType": "uint256",
          "name": "",
          "type": "uint256"
        }
      ],
      "stateMutability": "view",
      "type": "function"
    },
    {
      "inputs": [],
      "name": "getTokens",
      "outputs": [
        {
          "internalType": "address[]",
          "name": "",
          "type": "address[]"
        }
      ],
      "stateMutability": "view",
      "type": "function"
    },
    {
      "inputs": [
        {
          "internalType": "address",
          "name": "user",
          "type": "address"
        }
      ],
      "name": "invite",
      "outputs": [
        {
          "internalType": "uint256",
          "name": "",
          "type": "uint256"
        }
      ],
      "stateMutability": "nonpayable",
      "type": "function"
    },
    {
      "inputs": [
        {
          "internalType": "address",
          "name": "owner",
          "type": "address"
        },
        {
          "internalType": "address",
          "name": "operator",
          "type": "address"
        }
      ],
      "name": "isApprovedForAll",
      "outputs": [
        {
          "internalType": "bool",
          "name": "",
          "type": "bool"
        }
      ],
      "stateMutability": "view",
      "type": "function"
    },
    {
      "inputs": [],
      "name": "name",
      "outputs": [
        {
          "internalType": "string",
          "name": "",
          "type": "string"
        }
      ],
      "stateMutability": "view",
      "type": "function"
    },
    {
      "inputs": [],
      "name": "owner",
      "outputs": [
        {
          "internalType": "address",
          "name": "",
          "type": "address"
        }
      ],
      "stateMutability": "view",
      "type": "function"
    },
    {
      "inputs": [
        {
          "internalType": "uint256",
          "name": "tokenId",
          "type": "uint256"
        }
      ],
      "name": "ownerOf",
      "outputs": [
        {
          "internalType": "address",
          "name": "",
          "type": "address"
        }
      ],
      "stateMutability": "view",
      "type": "function"
    },
    {
      "inputs": [
        {
          "internalType": "address",
          "name": "",
          "type": "address"
        }
      ],
      "name": "owners",
      "outputs": [
        {
          "internalType": "uint256",
          "name": "",
          "type": "uint256"
        }
      ],
      "stateMutability": "view",
      "type": "function"
    },
    {
      "inputs": [],
      "name": "poolFee",
      "outputs": [
        {
          "internalType": "uint24",
          "name": "",
          "type": "uint24"
        }
      ],
      "stateMutability": "view",
      "type": "function"
    },
    {
      "inputs": [],
      "name": "rebalance",
      "outputs": [],
      "stateMutability": "nonpayable",
      "type": "function"
    },
    {
      "inputs": [],
      "name": "renounceOwnership",
      "outputs": [],
      "stateMutability": "nonpayable",
      "type": "function"
    },
    {
      "inputs": [
        {
          "internalType": "address",
          "name": "from",
          "type": "address"
        },
        {
          "internalType": "address",
          "name": "to",
          "type": "address"
        },
        {
          "internalType": "uint256",
          "name": "tokenId",
          "type": "uint256"
        }
      ],
      "name": "safeTransferFrom",
      "outputs": [],
      "stateMutability": "nonpayable",
      "type": "function"
    },
    {
      "inputs": [
        {
          "internalType": "address",
          "name": "from",
          "type": "address"
        },
        {
          "internalType": "address",
          "name": "to",
          "type": "address"
        },
        {
          "internalType": "uint256",
          "name": "tokenId",
          "type": "uint256"
        },
        {
          "internalType": "bytes",
          "name": "data",
          "type": "bytes"
        }
      ],
      "name": "safeTransferFrom",
      "outputs": [],
      "stateMutability": "nonpayable",
      "type": "function"
    },
    {
      "inputs": [
        {
          "internalType": "address",
          "name": "operator",
          "type": "address"
        },
        {
          "internalType": "bool",
          "name": "approved",
          "type": "bool"
        }
      ],
      "name": "setApprovalForAll",
      "outputs": [],
      "stateMutability": "nonpayable",
      "type": "function"
    },
    {
      "inputs": [
        {
          "internalType": "uint256",
          "name": "tokenId",
          "type": "uint256"
        }
      ],
      "name": "shareOf",
      "outputs": [
        {
          "internalType": "uint256",
          "name": "",
          "type": "uint256"
        }
      ],
      "stateMutability": "view",
      "type": "function"
    },
    {
      "inputs": [
        {
          "internalType": "uint256",
          "name": "",
          "type": "uint256"
        }
      ],
      "name": "shares",
      "outputs": [
        {
          "internalType": "uint256",
          "name": "",
          "type": "uint256"
        }
      ],
      "stateMutability": "view",
      "type": "function"
    },
    {
      "inputs": [
        {
          "internalType": "bytes4",
          "name": "interfaceId",
          "type": "bytes4"
        }
      ],
      "name": "supportsInterface",
      "outputs": [
        {
          "internalType": "bool",
          "name": "",
          "type": "bool"
        }
      ],
      "stateMutability": "view",
      "type": "function"
    },
    {
      "inputs": [],
      "name": "swapRouter",
      "outputs": [
        {
          "internalType": "contract ISwapRouter",
          "name": "",
          "type": "address"
        }
      ],
      "stateMutability": "view",
      "type": "function"
    },
    {
      "inputs": [],
      "name": "symbol",
      "outputs": [
        {
          "internalType": "string",
          "name": "",
          "type": "string"
        }
      ],
      "stateMutability": "view",
      "type": "function"
    },
    {
      "inputs": [
        {
          "internalType": "address",
          "name": "owner",
          "type": "address"
        }
      ],
      "name": "tokenIdOf",
      "outputs": [
        {
          "internalType": "uint256",
          "name": "",
          "type": "uint256"
        }
      ],
      "stateMutability": "view",
      "type": "function"
    },
    {
      "inputs": [
        {
          "internalType": "uint256",
          "name": "tokenId",
          "type": "uint256"
        }
      ],
      "name": "tokenURI",
      "outputs": [
        {
          "internalType": "string",
          "name": "",
          "type": "string"
        }
      ],
      "stateMutability": "view",
      "type": "function"
    },
    {
      "inputs": [
        {
          "internalType": "uint256",
          "name": "",
          "type": "uint256"
        }
      ],
      "name": "tokens",
      "outputs": [
        {
          "internalType": "address",
          "name": "",
          "type": "address"
        }
      ],
      "stateMutability": "view",
      "type": "function"
    },
    {
      "inputs": [],
      "name": "totalSupply",
      "outputs": [
        {
          "internalType": "uint256",
          "name": "",
          "type": "uint256"
        }
      ],
      "stateMutability": "view",
      "type": "function"
    },
    {
      "inputs": [
        {
          "internalType": "address",
          "name": "from",
          "type": "address"
        },
        {
          "internalType": "address",
          "name": "to",
          "type": "address"
        },
        {
          "internalType": "uint256",
          "name": "tokenId",
          "type": "uint256"
        }
      ],
      "name": "transferFrom",
      "outputs": [],
      "stateMutability": "nonpayable",
      "type": "function"
    },
    {
      "inputs": [
        {
          "internalType": "address",
          "name": "newOwner",
          "type": "address"
        }
      ],
      "name": "transferOwnership",
      "outputs": [],
      "stateMutability": "nonpayable",
      "type": "function"
    },
    {
      "inputs": [
        {
          "internalType": "uint256",
          "name": "_nftId",
          "type": "uint256"
        },
        {
          "internalType": "uint256",
          "name": "_amount",
          "type": "uint256"
        }
      ],
      "name": "withdraw",
      "outputs": [],
      "stateMutability": "nonpayable",
      "type": "function"
    },
    {
      "stateMutability": "payable",
      "type": "receive"
    }
  ],
  "bytecode": {
    "object": "0x60c06040526305f5e100600f553480156200001957600080fd5b5060405162004d2138038062004d218339810160408190526200003c9162000351565b6040518060400160405280600a81526020016914da185c9959119d5b9960b21b81525060405180604001604052806005815260200164534841465560d81b81525062000097620000916200022c60201b60201c565b62000230565b8151620000ac90600190602085019062000280565b508051620000c290600290602084019062000280565b5050506001600160a01b03808416608081905290831660a052600a80546001600160a01b031916821790556040805163313ce56760e01b8152905163313ce567916004808201926020929091908290030181865afa15801562000129573d6000803e3d6000fd5b505050506040513d601f19601f820116820180604052508101906200014f91906200039b565b6200015c90600a620004dc565b600b556040518390829062000171906200030f565b6001600160a01b03928316815291166020820152604001604051809103906000f080158015620001a5573d6000803e3d6000fd5b50600e80546001600160a01b039283166001600160a01b03199182161790915593166000818152600c60205260408120612710600182810191909155815460ff19168117909155600d805491820181559091527fd7b6990105719101dabeb77144f2a3385c8033acd3af97e9423a695e81ad1eb50180549094161790925550620005299050565b3390565b600080546001600160a01b038381166001600160a01b0319831681178455604051919092169283917f8be0079c531659141344cd1fd0a4f28419497f9722a3daafe3b4186f6b6457e09190a35050565b8280546200028e90620004ed565b90600052602060002090601f016020900481019282620002b25760008555620002fd565b82601f10620002cd57805160ff1916838001178555620002fd565b82800160010185558215620002fd579182015b82811115620002fd578251825591602001919060010190620002e0565b506200030b9291506200031d565b5090565b61090e806200441383390190565b5b808211156200030b57600081556001016200031e565b80516001600160a01b03811681146200034c57600080fd5b919050565b6000806000606084860312156200036757600080fd5b620003728462000334565b9250620003826020850162000334565b9150620003926040850162000334565b90509250925092565b600060208284031215620003ae57600080fd5b815160ff81168114620003c057600080fd5b9392505050565b634e487b7160e01b600052601160045260246000fd5b600181815b808511156200041e578160001904821115620004025762000402620003c7565b808516156200041057918102915b93841c9390800290620003e2565b509250929050565b6000826200043757506001620004d6565b816200044657506000620004d6565b81600181146200045f57600281146200046a576200048a565b6001915050620004d6565b60ff8411156200047e576200047e620003c7565b50506001821b620004d6565b5060208310610133831016604e8410600b8410161715620004af575081810a620004d6565b620004bb8383620003dd565b8060001904821115620004d257620004d2620003c7565b0290505b92915050565b6000620003c060ff84168362000426565b600181811c908216806200050257607f821691505b6020821081036200052357634e487b7160e01b600052602260045260246000fd5b50919050565b60805160a051613e70620005a36000396000818161076001528181612f130152612ff50152600081816102b4015281816104c501528181610ba501528181610ecc015281816112070152818161183101528181611947015281816119a401528181611d7d015281816122d301526129cd0152613e706000f3fe6080604052600436106102a45760003560e01c8063715018a61161016e578063b6b55f25116100cb578063cb2a0f561161007f578063f11b818811610064578063f11b81881461080b578063f2fde38b1461085c578063f5962e2d1461087c57600080fd5b8063cb2a0f56146107a2578063e985e9c5146107c257600080fd5b8063bb0498de116100b0578063bb0498de14610739578063c31c9c071461074e578063c87b56dd1461078257600080fd5b8063b6b55f2514610706578063b88d4fde1461071957600080fd5b806393e5e90f116101225780639b306aa1116101075780639b306aa1146106a4578063a22cb465146106c4578063aa6ca808146106e457600080fd5b806393e5e90f1461066f57806395d89b411461068f57600080fd5b80637d7c2a1c116101535780637d7c2a1c1461061c5780637e609942146106315780638da5cb5b1461065157600080fd5b8063715018a6146105d1578063773c02d4146105e657600080fd5b806326ca291b1161021c5780634f64b2be116101d05780635c9ff291116101b55780635c9ff291146105545780636352211e1461059157806370a08231146105b157600080fd5b80634f64b2be1461050757806357a858fc1461052757600080fd5b8063441a3e7011610201578063441a3e70146104935780634aa4a4fc146104b35780634b77c468146104e757600080fd5b806326ca291b1461044657806342842e0e1461047357600080fd5b8063089fe6aa1161027357806318160ddd1161025857806318160ddd146103fc5780632226a4c01461041157806323b872dd1461042657600080fd5b8063089fe6aa146103b2578063095ea7b3146103dc57600080fd5b806301ffc9a7146102e8578063022914a71461031d57806306fdde0314610358578063081812fc1461037a57600080fd5b366102e357336001600160a01b037f000000000000000000000000000000000000000000000000000000000000000016146102e1576102e161368c565b005b600080fd5b3480156102f457600080fd5b506103086103033660046136e9565b61089c565b60405190151581526020015b60405180910390f35b34801561032957600080fd5b5061034a610338366004613722565b60096020526000908152604090205481565b604051908152602001610314565b34801561036457600080fd5b5061036d610981565b60405161031491906137b3565b34801561038657600080fd5b5061039a6103953660046137c6565b610a13565b6040516001600160a01b039091168152602001610314565b3480156103be57600080fd5b506103c8610bb881565b60405162ffffff9091168152602001610314565b3480156103e857600080fd5b506102e16103f73660046137df565b610a3a565b34801561040857600080fd5b5061034a610b8e565b34801561041d57600080fd5b5061034a610b9e565b34801561043257600080fd5b506102e1610441366004613809565b610bc9565b34801561045257600080fd5b5061034a6104613660046137c6565b60009081526008602052604090205490565b34801561047f57600080fd5b506102e161048e366004613809565b610c6d565b34801561049f57600080fd5b506102e16104ae366004613845565b610c88565b3480156104bf57600080fd5b5061039a7f000000000000000000000000000000000000000000000000000000000000000081565b3480156104f357600080fd5b5061034a610502366004613722565b610f6b565b34801561051357600080fd5b5061039a6105223660046137c6565b610fcc565b34801561053357600080fd5b5061034a6105423660046137c6565b60086020526000908152604090205481565b34801561056057600080fd5b5061057461056f3660046137c6565b610ff6565b604080519283526001600160a01b03909116602083015201610314565b34801561059d57600080fd5b5061039a6105ac3660046137c6565b61101e565b3480156105bd57600080fd5b5061034a6105cc366004613722565b611083565b3480156105dd57600080fd5b506102e161111d565b3480156105f257600080fd5b5061034a610601366004613722565b6001600160a01b031660009081526009602052604090205490565b34801561062857600080fd5b506102e1611131565b34801561063d57600080fd5b506102e161064c3660046137df565b611792565b34801561065d57600080fd5b506000546001600160a01b031661039a565b34801561067b57600080fd5b5061034a61068a366004613722565b611a21565b34801561069b57600080fd5b5061036d611bda565b3480156106b057600080fd5b5061034a6106bf366004613722565b611be9565b3480156106d057600080fd5b506102e16106df366004613875565b611c9e565b3480156106f057600080fd5b506106f9611cad565b60405161031491906138ac565b6102e16107143660046137c6565b611d0e565b34801561072557600080fd5b506102e1610734366004613928565b611e6b565b34801561074557600080fd5b5061034a611ef9565b34801561075a57600080fd5b5061039a7f000000000000000000000000000000000000000000000000000000000000000081565b34801561078e57600080fd5b5061036d61079d3660046137c6565b61214c565b3480156107ae57600080fd5b506102e16107bd366004613a22565b6121c0565b3480156107ce57600080fd5b506103086107dd366004613a5e565b6001600160a01b03918216600090815260066020908152604080832093909416825291909152205460ff1690565b34801561081757600080fd5b50610845610826366004613722565b600c602052600090815260409020805460019091015460ff9091169082565b604080519215158352602083019190915201610314565b34801561086857600080fd5b506102e1610877366004613722565b61242f565b34801561088857600080fd5b506105746108973660046137c6565b6124bf565b60007fffffffff0000000000000000000000000000000000000000000000000000000082167f80ac58cd00000000000000000000000000000000000000000000000000000000148061092f57507fffffffff0000000000000000000000000000000000000000000000000000000082167f5b5e139f00000000000000000000000000000000000000000000000000000000145b8061097b57507f01ffc9a7000000000000000000000000000000000000000000000000000000007fffffffff000000000000000000000000000000000000000000000000000000008316145b92915050565b60606001805461099090613a91565b80601f01602080910402602001604051908101604052809291908181526020018280546109bc90613a91565b8015610a095780601f106109de57610100808354040283529160200191610a09565b820191906000526020600020905b8154815290600101906020018083116109ec57829003601f168201915b5050505050905090565b6000610a1e8261250f565b506000908152600560205260409020546001600160a01b031690565b6000610a458261101e565b9050806001600160a01b0316836001600160a01b031603610ad35760405162461bcd60e51b815260206004820152602160248201527f4552433732313a20617070726f76616c20746f2063757272656e74206f776e6560448201527f720000000000000000000000000000000000000000000000000000000000000060648201526084015b60405180910390fd5b336001600160a01b0382161480610b0d57506001600160a01b038116600090815260066020908152604080832033845290915290205460ff165b610b7f5760405162461bcd60e51b815260206004820152603d60248201527f4552433732313a20617070726f76652063616c6c6572206973206e6f7420746f60448201527f6b656e206f776e6572206f7220617070726f76656420666f7220616c6c0000006064820152608401610aca565b610b898383612573565b505050565b6000610b9960075490565b905090565b6000610b997f0000000000000000000000000000000000000000000000000000000000000000611be9565b610bd333826125f9565b610c455760405162461bcd60e51b815260206004820152602d60248201527f4552433732313a2063616c6c6572206973206e6f7420746f6b656e206f776e6560448201527f72206f7220617070726f766564000000000000000000000000000000000000006064820152608401610aca565b610c50838383612678565b6001600160a01b0390911660009081526009602052604090205550565b610b8983838360405180602001604052806000815250611e6b565b8133610c938261101e565b6001600160a01b031614610ce95760405162461bcd60e51b815260206004820152601060248201527f43414c4c45525f4e4f545f4f574e4552000000000000000000000000000000006044820152606401610aca565b612710821115610d615760405162461bcd60e51b815260206004820152602360248201527f416d6f756e74206d7573742072616e6765206265747765656e203020616e642060448201527f31653400000000000000000000000000000000000000000000000000000000006064820152608401610aca565b60008381526008602052604081205490610d79611ef9565b90506000610d8782846128e4565b90506000610d9f86610d9985876128e4565b906128e4565b905082811115610e175760405162461bcd60e51b815260206004820152603460248201527f57697468647261776e2076616c7565206d757374206e6f74206265206772656160448201527f746572207468616e20746f74616c2076616c75650000000000000000000000006064820152608401610aca565b6000610e238284613b0d565b90506000610e318386613b0d565b9050610e3d8582612927565b60006127108903610e5057506000610e6a565b81610e5d61271085613b24565b610e679190613b61565b90505b60008a8152600860205260408120829055610e8361299a565b600b54610e909087613b24565b610e9a9190613b61565b6040517f2e1a7d4d000000000000000000000000000000000000000000000000000000008152600481018290529091507f00000000000000000000000000000000000000000000000000000000000000006001600160a01b031690632e1a7d4d90602401600060405180830381600087803b158015610f1857600080fd5b505af1158015610f2c573d6000803e3d6000fd5b505060405133925083156108fc02915083906000818181858888f19350505050158015610f5d573d6000803e3d6000fd5b505050505050505050505050565b6000610f7682611083565b15610fc35760405162461bcd60e51b815260206004820152601560248201527f5573657220616c72656164792061206d656d62657200000000000000000000006044820152606401610aca565b61097b82612a45565b600d8181548110610fdc57600080fd5b6000918252602090912001546001600160a01b0316905081565b600081815260086020526040812054819060006110128561101e565b91959194509092505050565b6000818152600360205260408120546001600160a01b03168061097b5760405162461bcd60e51b815260206004820152601860248201527f4552433732313a20696e76616c696420746f6b656e20494400000000000000006044820152606401610aca565b60006001600160a01b0382166111015760405162461bcd60e51b815260206004820152602960248201527f4552433732313a2061646472657373207a65726f206973206e6f74206120766160448201527f6c6964206f776e657200000000000000000000000000000000000000000000006064820152608401610aca565b506001600160a01b031660009081526004602052604090205490565b611125612a9c565b61112f6000612af6565b565b600061113b611ef9565b9050600061114761299a565b90506000606461115a6127106003613b24565b6111649190613b61565b600d5490915060009067ffffffffffffffff811115611185576111856138f9565b6040519080825280602002602001820160405280156111f557816020015b6040805160808101825260008082526020808301829052928201819052606082015282527fffffffffffffffffffffffffffffffffffffffffffffffffffffffffffffffff9092019101816111a35790505b50905060005b600d548110156116ef577f00000000000000000000000000000000000000000000000000000000000000006001600160a01b0316600d828154811061124257611242613b9c565b6000918252602090912001546001600160a01b0316146116dd576000612710600c6000600d858154811061127857611278613b9c565b60009182526020808320909101546001600160a01b031683528201929092526040019020600101546112aa9088613b24565b6112b49190613b61565b600e54600d80549293506000926001600160a01b03909216916316345f189190869081106112e4576112e4613b9c565b60009182526020909120015460405160e083901b7fffffffff000000000000000000000000000000000000000000000000000000001681526001600160a01b039091166004820152602401602060405180830381865afa15801561134c573d6000803e3d6000fd5b505050506040513d601f19601f820116820180604052508101906113709190613bcb565b90506000600d848154811061138757611387613b9c565b6000918252602090912001546040517f70a082310000000000000000000000000000000000000000000000000000000081523060048201526001600160a01b03909116906370a0823190602401602060405180830381865afa1580156113f1573d6000803e3d6000fd5b505050506040513d601f19601f820116820180604052508101906114159190613bcb565b90506000600d858154811061142c5761142c613b9c565b60009182526020918290200154604080517f313ce56700000000000000000000000000000000000000000000000000000000815290516001600160a01b039092169263313ce567926004808401938290030181865afa158015611493573d6000803e3d6000fd5b505050506040513d601f19601f820116820180604052508101906114b79190613be4565b60ff16905060006114c982600a613d27565b6114d38486613b24565b6114dd9190613b61565b90507f68c20c1a780bf657102be5c5b1bd21e12cec4f77ffd499672317601530fda302600d878154811061151357611513613b9c565b9060005260206000200160009054906101000a90046001600160a01b0316848388600c6000600d8d8154811061154b5761154b613b9c565b6000918252602080832091909101546001600160a01b039081168452838201949094526040928301909120600101548251979093168752860194909452928401919091526060830152608082015260a00160405180910390a160006115b289612710613b0d565b6115bc9087613b24565b82101580156115e057506115d289612710613d33565b6115dc9087613b24565b8211155b905080156115f3575050505050506116dd565b600086831015611670576116078388613b0d565b905060008b600b548361161a9190613b24565b6116249190613b61565b90506040518060800160405280600115158152602001600015158152602001828152602001888152508a8a8151811061165f5761165f613b9c565b6020026020010181905250506116d5565b61167a8784613b0d565b905060008661168a86600a613d27565b6116949084613b24565b61169e9190613b61565b90506116d3600d8a815481106116b6576116b6613b9c565b60009182526020822001546001600160a01b03169083908a612b5e565b505b505050505050505b806116e781613d4b565b9150506111fb565b5060005b600d5481101561178b5781818151811061170f5761170f613b9c565b6020026020010151600001511561177957600082828151811061173457611734613b9c565b6020026020010151604001519050611777600d838154811061175857611758613b9c565b6000918252602090912001546001600160a01b0316826001600a612b5e565b505b8061178381613d4b565b9150506116f3565b5050505050565b61179a612a9c565b6001600160a01b0382166000908152600c6020526040902054829060ff16151560011461182f5760405162461bcd60e51b815260206004820152602660248201527f417373657420646f6573206e6f7420657869737420696e2074686520706f727460448201527f666f6c696f2e00000000000000000000000000000000000000000000000000006064820152608401610aca565b7f00000000000000000000000000000000000000000000000000000000000000006001600160a01b0316836001600160a01b0316036118d65760405162461bcd60e51b815260206004820152603160248201527f43616e6e6f74206368616e6765207468652070726f706f7274696f6e206f662060448201527f74686520626173652063757272656e63790000000000000000000000000000006064820152608401610aca565b6001600160a01b0383166000908152600c6020526040812060010154906118fb610b9e565b6001600160a01b0386166000908152600c602052604090206001018590559050818411156119805761192d8285613b0d565b6119379082613b0d565b905061197b816001600160a01b037f0000000000000000000000000000000000000000000000000000000000000000166000908152600c6020526040902060010155565b6119d8565b61198a8483613b0d565b6119949082613d33565b90506119d8816001600160a01b037f0000000000000000000000000000000000000000000000000000000000000000166000908152600c6020526040902060010155565b604080516001600160a01b0387168152602081018690527fb51c0011094dfb717010eb3fac979826c5a5c243d173211895a461152fe5d8eb910160405180910390a15050505050565b6001600160a01b0381166000908152600c6020526040812054829060ff161515600114611ab65760405162461bcd60e51b815260206004820152602660248201527f417373657420646f6573206e6f7420657869737420696e2074686520706f727460448201527f666f6c696f2e00000000000000000000000000000000000000000000000000006064820152608401610aca565b6040517f70a082310000000000000000000000000000000000000000000000000000000081523060048201526000906001600160a01b038516906370a0823190602401602060405180830381865afa158015611b16573d6000803e3d6000fd5b505050506040513d601f19601f82011682018060405250810190611b3a9190613bcb565b600e546040517f16345f180000000000000000000000000000000000000000000000000000000081526001600160a01b0387811660048301529293508392909116906316345f1890602401602060405180830381865afa158015611ba2573d6000803e3d6000fd5b505050506040513d601f19601f82011682018060405250810190611bc69190613bcb565b611bd09190613b24565b9250505b50919050565b60606002805461099090613a91565b6001600160a01b0381166000908152600c6020526040812054829060ff161515600114611c7e5760405162461bcd60e51b815260206004820152602660248201527f417373657420646f6573206e6f7420657869737420696e2074686520706f727460448201527f666f6c696f2e00000000000000000000000000000000000000000000000000006064820152608401610aca565b50506001600160a01b03166000908152600c602052604090206001015490565b611ca9338383612c36565b5050565b6060600d805480602002602001604051908101604052809291908181526020018280548015610a0957602002820191906000526020600020905b81546001600160a01b03168152600190910190602001808311611ce7575050505050905090565b8033611d198261101e565b6001600160a01b031614611d6f5760405162461bcd60e51b815260206004820152601060248201527f43414c4c45525f4e4f545f4f574e4552000000000000000000000000000000006044820152606401610aca565b6000611d79611ef9565b90507f00000000000000000000000000000000000000000000000000000000000000006001600160a01b031663d0e30db0346040518263ffffffff1660e01b81526004016000604051808303818588803b158015611dd657600080fd5b505af1158015611dea573d6000803e3d6000fd5b50505050506000611df9611ef9565b90506000611e078383613b0d565b9050600083600003611e1c5750612710611e36565b82611e2961271084613b24565b611e339190613b61565b90505b611e408484612927565b60008681526008602052604081208054839290611e5e908490613d33565b9091555050505050505050565b611e7533836125f9565b611ee75760405162461bcd60e51b815260206004820152602d60248201527f4552433732313a2063616c6c6572206973206e6f7420746f6b656e206f776e6560448201527f72206f7220617070726f766564000000000000000000000000000000000000006064820152608401610aca565b611ef384848484612d22565b50505050565b600080805b600d54811015611bd4576000600d8281548110611f1d57611f1d613b9c565b6000918252602090912001546040517f70a082310000000000000000000000000000000000000000000000000000000081523060048201526001600160a01b03909116906370a0823190602401602060405180830381865afa158015611f87573d6000803e3d6000fd5b505050506040513d601f19601f82011682018060405250810190611fab9190613bcb565b90506000600d8381548110611fc257611fc2613b9c565b60009182526020918290200154604080517f313ce56700000000000000000000000000000000000000000000000000000000815290516001600160a01b039092169263313ce567926004808401938290030181865afa158015612029573d6000803e3d6000fd5b505050506040513d601f19601f8201168201806040525081019061204d9190613be4565b60ff169050600061205f82600a613d27565b600e54600d805486926001600160a01b0316916316345f18918990811061208857612088613b9c565b60009182526020909120015460405160e083901b7fffffffff000000000000000000000000000000000000000000000000000000001681526001600160a01b039091166004820152602401602060405180830381865afa1580156120f0573d6000803e3d6000fd5b505050506040513d601f19601f820116820180604052508101906121149190613bcb565b61211e9190613b24565b6121289190613b61565b90506121348186613d33565b9450505050808061214490613d4b565b915050611efe565b60606121578261250f565b600061216e60408051602081019091526000815290565b9050600081511161218e57604051806020016040528060008152506121b9565b8061219884612dab565b6040516020016121a9929190613d83565b6040516020818303038152906040525b9392505050565b6121c8612a9c565b6001600160a01b0383166000908152600c6020526040902054839060ff16156122595760405162461bcd60e51b815260206004820152602660248201527f417373657420616c72656164792065786973747320696e2074686520706f727460448201527f666f6c696f2e00000000000000000000000000000000000000000000000000006064820152608401610aca565b612261610b9e565b8311156122b05760405162461bcd60e51b815260206004820152601c60248201527f52454d41494e494e475f50524f504f5254494f4e5f544f4f5f4c4f57000000006044820152606401610aca565b60006122ba610b9e565b90506123076122c98583613b0d565b6001600160a01b037f0000000000000000000000000000000000000000000000000000000000000000166000908152600c6020526040902060010155565b600e546040517fe8a97a3e0000000000000000000000000000000000000000000000000000000081526001600160a01b03878116600483015285811660248301529091169063e8a97a3e90604401600060405180830381600087803b15801561236f57600080fd5b505af1158015612383573d6000803e3d6000fd5b5050506001600160a01b039095166000818152600c6020526040812060018082019790975580547fffffffffffffffffffffffffffffffffffffffffffffffffffffffffffffff001687179055600d8054968701815590527fd7b6990105719101dabeb77144f2a3385c8033acd3af97e9423a695e81ad1eb590940180547fffffffffffffffffffffffff00000000000000000000000000000000000000001690941790935550505050565b612437612a9c565b6001600160a01b0381166124b35760405162461bcd60e51b815260206004820152602660248201527f4f776e61626c653a206e6577206f776e657220697320746865207a65726f206160448201527f64647265737300000000000000000000000000000000000000000000000000006064820152608401610aca565b6124bc81612af6565b50565b600081815260086020526040812054819060006124db8561101e565b905060006124e7611ef9565b905060006127106124f88386613b24565b6125029190613b61565b9792965091945050505050565b6000818152600360205260409020546001600160a01b03166124bc5760405162461bcd60e51b815260206004820152601860248201527f4552433732313a20696e76616c696420746f6b656e20494400000000000000006044820152606401610aca565b600081815260056020526040902080547fffffffffffffffffffffffff0000000000000000000000000000000000000000166001600160a01b03841690811790915581906125c08261101e565b6001600160a01b03167f8c5be1e5ebec7d5bd14f71427d1e84f3dd0314c0f7b2291e5b200ac8c7c3b92560405160405180910390a45050565b6000806126058361101e565b9050806001600160a01b0316846001600160a01b0316148061264c57506001600160a01b0380821660009081526006602090815260408083209388168352929052205460ff165b806126705750836001600160a01b031661266584610a13565b6001600160a01b0316145b949350505050565b826001600160a01b031661268b8261101e565b6001600160a01b0316146127075760405162461bcd60e51b815260206004820152602560248201527f4552433732313a207472616e736665722066726f6d20696e636f72726563742060448201527f6f776e65720000000000000000000000000000000000000000000000000000006064820152608401610aca565b6001600160a01b0382166127825760405162461bcd60e51b8152602060048201526024808201527f4552433732313a207472616e7366657220746f20746865207a65726f2061646460448201527f72657373000000000000000000000000000000000000000000000000000000006064820152608401610aca565b61278f8383836001612e69565b826001600160a01b03166127a28261101e565b6001600160a01b03161461281e5760405162461bcd60e51b815260206004820152602560248201527f4552433732313a207472616e736665722066726f6d20696e636f72726563742060448201527f6f776e65720000000000000000000000000000000000000000000000000000006064820152608401610aca565b600081815260056020908152604080832080547fffffffffffffffffffffffff00000000000000000000000000000000000000009081169091556001600160a01b038781168086526004855283862080547fffffffffffffffffffffffffffffffffffffffffffffffffffffffffffffffff01905590871680865283862080546001019055868652600390945282852080549092168417909155905184937fddf252ad1be2c89b69c2b068fc378daa952ba7f163c4a11628f55a4df523b3ef91a4505050565b600081157fffffffffffffffffffffffffffffffffffffffffffffffffffffffffffffec778390048411151761291957600080fd5b506127109102611388010490565b811580612932575080155b1561293b575050565b60015b612946610b8e565b8111610b89576000818152600860205260408120548291846129688388613b24565b6129729190613b61565b600093845260086020526040909320929092555081905061299281613d4b565b91505061293e565b600e546040517f16345f180000000000000000000000000000000000000000000000000000000081526001600160a01b037f00000000000000000000000000000000000000000000000000000000000000008116600483015260009283929116906316345f1890602401602060405180830381865afa158015612a21573d6000803e3d6000fd5b505050506040513d601f19601f8201168201806040525081019061097b9190613bcb565b6000612a55600780546001019055565b6000612a6060075490565b9050612a6c8382612ef1565b60008181526008602090815260408083208390556001600160a01b03909516825260099052929092208290555090565b6000546001600160a01b0316331461112f5760405162461bcd60e51b815260206004820181905260248201527f4f776e61626c653a2063616c6c6572206973206e6f7420746865206f776e65726044820152606401610aca565b600080546001600160a01b038381167fffffffffffffffffffffffff0000000000000000000000000000000000000000831681178455604051919092169283917f8be0079c531659141344cd1fd0a4f28419497f9722a3daafe3b4186f6b6457e09190a35050565b8115612bcc57600a54612b7c906001600160a01b0316858584612f0b565b50604080516001600160a01b0386168152602081018590529081018290527f1cbc5ab135991bd2b6a4b034a04aa2aa086dac1371cb9b16b8b5e2ed6b036bed9060600160405180910390a1611ef3565b600a54612be59085906001600160a01b03168584612f0b565b50604080516001600160a01b0386168152602081018590529081018290527fed7a144fad14804d5c249145e3e0e2b63a9eb455b76aee5bc92d711e9bba3e4a9060600160405180910390a150505050565b816001600160a01b0316836001600160a01b031603612c975760405162461bcd60e51b815260206004820152601960248201527f4552433732313a20617070726f766520746f2063616c6c6572000000000000006044820152606401610aca565b6001600160a01b0383811660008181526006602090815260408083209487168084529482529182902080547fffffffffffffffffffffffffffffffffffffffffffffffffffffffffffffff001686151590811790915591519182527f17307eab39ab6107e8899845ad3d59bd9653f200f220920489ca2b5937696c31910160405180910390a3505050565b612d2d848484612678565b612d398484848461306f565b611ef35760405162461bcd60e51b815260206004820152603260248201527f4552433732313a207472616e7366657220746f206e6f6e20455243373231526560448201527f63656976657220696d706c656d656e74657200000000000000000000000000006064820152608401610aca565b60606000612db88361322e565b600101905060008167ffffffffffffffff811115612dd857612dd86138f9565b6040519080825280601f01601f191660200182016040528015612e02576020820181803683370190505b5090508181016020015b7fffffffffffffffffffffffffffffffffffffffffffffffffffffffffffffffff017f3031323334353637383961626364656600000000000000000000000000000000600a86061a8153600a8504945084612e0c57509392505050565b6001811115611ef3576001600160a01b03841615612eaf576001600160a01b03841660009081526004602052604081208054839290612ea9908490613b0d565b90915550505b6001600160a01b03831615611ef3576001600160a01b03831660009081526004602052604081208054839290612ee6908490613d33565b909155505050505050565b611ca9828260405180602001604052806000815250613310565b6000612f38857f000000000000000000000000000000000000000000000000000000000000000085613399565b60408051610100810182526001600160a01b03878116825286811660208301908152610bb88385019081523060608501908152426080860190815260a086018a815260c087018a8152600060e0890190815298517f414bf389000000000000000000000000000000000000000000000000000000008152885188166004820152955187166024870152935162ffffff1660448601529151851660648501525160848401525160a48301525160c48201529251811660e484015290917f00000000000000000000000000000000000000000000000000000000000000009091169063414bf38990610104016020604051808303816000875af1158015613041573d6000803e3d6000fd5b505050506040513d601f19601f820116820180604052508101906130659190613bcb565b9695505050505050565b60006001600160a01b0384163b15613223576040517f150b7a020000000000000000000000000000000000000000000000000000000081526001600160a01b0385169063150b7a02906130cc903390899088908890600401613db2565b6020604051808303816000875af1925050508015613125575060408051601f3d9081017fffffffffffffffffffffffffffffffffffffffffffffffffffffffffffffffe016820190925261312291810190613de4565b60015b6131d8573d808015613153576040519150601f19603f3d011682016040523d82523d6000602084013e613158565b606091505b5080516000036131d05760405162461bcd60e51b815260206004820152603260248201527f4552433732313a207472616e7366657220746f206e6f6e20455243373231526560448201527f63656976657220696d706c656d656e74657200000000000000000000000000006064820152608401610aca565b805181602001fd5b7fffffffff00000000000000000000000000000000000000000000000000000000167f150b7a0200000000000000000000000000000000000000000000000000000000149050612670565b506001949350505050565b6000807a184f03e93ff9f4daa797ed6e38ed64bf6a1f0100000000000000008310613277577a184f03e93ff9f4daa797ed6e38ed64bf6a1f010000000000000000830492506040015b6d04ee2d6d415b85acef810000000083106132a3576d04ee2d6d415b85acef8100000000830492506020015b662386f26fc1000083106132c157662386f26fc10000830492506010015b6305f5e10083106132d9576305f5e100830492506008015b61271083106132ed57612710830492506004015b606483106132ff576064830492506002015b600a831061097b5760010192915050565b61331a83836134db565b613327600084848461306f565b610b895760405162461bcd60e51b815260206004820152603260248201527f4552433732313a207472616e7366657220746f206e6f6e20455243373231526560448201527f63656976657220696d706c656d656e74657200000000000000000000000000006064820152608401610aca565b604080516001600160a01b038481166024830152604480830185905283518084039091018152606490920183526020820180517bffffffffffffffffffffffffffffffffffffffffffffffffffffffff167f095ea7b30000000000000000000000000000000000000000000000000000000017905291516000928392908716916134239190613e01565b6000604051808303816000865af19150503d8060008114613460576040519150601f19603f3d011682016040523d82523d6000602084013e613465565b606091505b509150915081801561348f57508051158061348f57508080602001905181019061348f9190613e1d565b61178b5760405162461bcd60e51b815260206004820152600260248201527f53410000000000000000000000000000000000000000000000000000000000006044820152606401610aca565b6001600160a01b0382166135315760405162461bcd60e51b815260206004820181905260248201527f4552433732313a206d696e7420746f20746865207a65726f20616464726573736044820152606401610aca565b6000818152600360205260409020546001600160a01b0316156135965760405162461bcd60e51b815260206004820152601c60248201527f4552433732313a20746f6b656e20616c7265616479206d696e746564000000006044820152606401610aca565b6135a4600083836001612e69565b6000818152600360205260409020546001600160a01b0316156136095760405162461bcd60e51b815260206004820152601c60248201527f4552433732313a20746f6b656e20616c7265616479206d696e746564000000006044820152606401610aca565b6001600160a01b038216600081815260046020908152604080832080546001019055848352600390915280822080547fffffffffffffffffffffffff0000000000000000000000000000000000000000168417905551839291907fddf252ad1be2c89b69c2b068fc378daa952ba7f163c4a11628f55a4df523b3ef908290a45050565b7f4e487b7100000000000000000000000000000000000000000000000000000000600052600160045260246000fd5b7fffffffff00000000000000000000000000000000000000000000000000000000811681146124bc57600080fd5b6000602082840312156136fb57600080fd5b81356121b9816136bb565b80356001600160a01b038116811461371d57600080fd5b919050565b60006020828403121561373457600080fd5b6121b982613706565b60005b83811015613758578181015183820152602001613740565b83811115611ef35750506000910152565b6000815180845261378181602086016020860161373d565b601f017fffffffffffffffffffffffffffffffffffffffffffffffffffffffffffffffe0169290920160200192915050565b6020815260006121b96020830184613769565b6000602082840312156137d857600080fd5b5035919050565b600080604083850312156137f257600080fd5b6137fb83613706565b946020939093013593505050565b60008060006060848603121561381e57600080fd5b61382784613706565b925061383560208501613706565b9150604084013590509250925092565b6000806040838503121561385857600080fd5b50508035926020909101359150565b80151581146124bc57600080fd5b6000806040838503121561388857600080fd5b61389183613706565b915060208301356138a181613867565b809150509250929050565b6020808252825182820181905260009190848201906040850190845b818110156138ed5783516001600160a01b0316835292840192918401916001016138c8565b50909695505050505050565b7f4e487b7100000000000000000000000000000000000000000000000000000000600052604160045260246000fd5b6000806000806080858703121561393e57600080fd5b61394785613706565b935061395560208601613706565b925060408501359150606085013567ffffffffffffffff8082111561397957600080fd5b818701915087601f83011261398d57600080fd5b81358181111561399f5761399f6138f9565b604051601f82017fffffffffffffffffffffffffffffffffffffffffffffffffffffffffffffffe0908116603f011681019083821181831017156139e5576139e56138f9565b816040528281528a60208487010111156139fe57600080fd5b82602086016020830137600060208483010152809550505050505092959194509250565b600080600060608486031215613a3757600080fd5b613a4084613706565b925060208401359150613a5560408501613706565b90509250925092565b60008060408385031215613a7157600080fd5b613a7a83613706565b9150613a8860208401613706565b90509250929050565b600181811c90821680613aa557607f821691505b602082108103611bd4577f4e487b7100000000000000000000000000000000000000000000000000000000600052602260045260246000fd5b7f4e487b7100000000000000000000000000000000000000000000000000000000600052601160045260246000fd5b600082821015613b1f57613b1f613ade565b500390565b6000817fffffffffffffffffffffffffffffffffffffffffffffffffffffffffffffffff0483118215151615613b5c57613b5c613ade565b500290565b600082613b97577f4e487b7100000000000000000000000000000000000000000000000000000000600052601260045260246000fd5b500490565b7f4e487b7100000000000000000000000000000000000000000000000000000000600052603260045260246000fd5b600060208284031215613bdd57600080fd5b5051919050565b600060208284031215613bf657600080fd5b815160ff811681146121b957600080fd5b600181815b80851115613c6057817fffffffffffffffffffffffffffffffffffffffffffffffffffffffffffffffff04821115613c4657613c46613ade565b80851615613c5357918102915b93841c9390800290613c0c565b509250929050565b600082613c775750600161097b565b81613c845750600061097b565b8160018114613c9a5760028114613ca457613cc0565b600191505061097b565b60ff841115613cb557613cb5613ade565b50506001821b61097b565b5060208310610133831016604e8410600b8410161715613ce3575081810a61097b565b613ced8383613c07565b807fffffffffffffffffffffffffffffffffffffffffffffffffffffffffffffffff04821115613d1f57613d1f613ade565b029392505050565b60006121b98383613c68565b60008219821115613d4657613d46613ade565b500190565b60007fffffffffffffffffffffffffffffffffffffffffffffffffffffffffffffffff8203613d7c57613d7c613ade565b5060010190565b60008351613d9581846020880161373d565b835190830190613da981836020880161373d565b01949350505050565b60006001600160a01b038087168352808616602084015250836040830152608060608301526130656080830184613769565b600060208284031215613df657600080fd5b81516121b9816136bb565b60008251613e1381846020870161373d565b9190910192915050565b600060208284031215613e2f57600080fd5b81516121b98161386756fea264697066735822122085da6fa50403a444ac5ab741d9470878c40e2ff2213a989ed35b57a6d9d0d0eb64736f6c634300080e0033608060405234801561001057600080fd5b5060405161090e38038061090e83398101604081905261002f916100d5565b61003833610069565b6001600160a01b03918216600090815260016020526040902080546001600160a01b03191691909216179055610108565b600080546001600160a01b038381166001600160a01b0319831681178455604051919092169283917f8be0079c531659141344cd1fd0a4f28419497f9722a3daafe3b4186f6b6457e09190a35050565b80516001600160a01b03811681146100d057600080fd5b919050565b600080604083850312156100e857600080fd5b6100f1836100b9565b91506100ff602084016100b9565b90509250929050565b6107f7806101176000396000f3fe608060405234801561001057600080fd5b506004361061007d5760003560e01c80638da5cb5b1161005b5780638da5cb5b146100ea578063e8a97a3e14610108578063f2fde38b1461011b578063fceb00241461012e57600080fd5b806316345f18146100825780635b6cca80146100a8578063715018a6146100e0575b600080fd5b610095610090366004610702565b610141565b6040519081526020015b60405180910390f35b6100bb6100b6366004610702565b610287565b60405173ffffffffffffffffffffffffffffffffffffffff909116815260200161009f565b6100e8610346565b005b60005473ffffffffffffffffffffffffffffffffffffffff166100bb565b6100e8610116366004610724565b61035a565b6100e8610129366004610702565b610447565b6100e861013c366004610702565b6104fe565b73ffffffffffffffffffffffffffffffffffffffff80821660009081526001602052604081205490918391166101d8576040517f08c379a000000000000000000000000000000000000000000000000000000000815260206004820152601a60248201527f5072696365206665656420646f6573206e6f742065786973742e00000000000060448201526064015b60405180910390fd5b73ffffffffffffffffffffffffffffffffffffffff8084166000908152600160205260408082205481517ffeaf968c00000000000000000000000000000000000000000000000000000000815291519293169163feaf968c9160048082019260a0929091908290030181865afa158015610256573d6000803e3d6000fd5b505050506040513d601f19601f8201168201806040525081019061027a9190610771565b5091979650505050505050565b73ffffffffffffffffffffffffffffffffffffffff8082166000908152600160205260408120549091839116610319576040517f08c379a000000000000000000000000000000000000000000000000000000000815260206004820152601a60248201527f5072696365206665656420646f6573206e6f742065786973742e00000000000060448201526064016101cf565b505073ffffffffffffffffffffffffffffffffffffffff9081166000908152600160205260409020541690565b61034e6105e3565b6103586000610664565b565b73ffffffffffffffffffffffffffffffffffffffff808316600090815260016020526040902054839116156103eb576040517f08c379a000000000000000000000000000000000000000000000000000000000815260206004820152601a60248201527f5072696365206665656420616c7265616479206578697374732e00000000000060448201526064016101cf565b6103f36105e3565b5073ffffffffffffffffffffffffffffffffffffffff918216600090815260016020526040902080547fffffffffffffffffffffffff00000000000000000000000000000000000000001691909216179055565b61044f6105e3565b73ffffffffffffffffffffffffffffffffffffffff81166104f2576040517f08c379a000000000000000000000000000000000000000000000000000000000815260206004820152602660248201527f4f776e61626c653a206e6577206f776e657220697320746865207a65726f206160448201527f646472657373000000000000000000000000000000000000000000000000000060648201526084016101cf565b6104fb81610664565b50565b73ffffffffffffffffffffffffffffffffffffffff80821660009081526001602052604090205482911661058e576040517f08c379a000000000000000000000000000000000000000000000000000000000815260206004820152601a60248201527f5072696365206665656420646f6573206e6f742065786973742e00000000000060448201526064016101cf565b6105966105e3565b5073ffffffffffffffffffffffffffffffffffffffff16600090815260016020526040902080547fffffffffffffffffffffffff0000000000000000000000000000000000000000169055565b60005473ffffffffffffffffffffffffffffffffffffffff163314610358576040517f08c379a000000000000000000000000000000000000000000000000000000000815260206004820181905260248201527f4f776e61626c653a2063616c6c6572206973206e6f7420746865206f776e657260448201526064016101cf565b6000805473ffffffffffffffffffffffffffffffffffffffff8381167fffffffffffffffffffffffff0000000000000000000000000000000000000000831681178455604051919092169283917f8be0079c531659141344cd1fd0a4f28419497f9722a3daafe3b4186f6b6457e09190a35050565b803573ffffffffffffffffffffffffffffffffffffffff811681146106fd57600080fd5b919050565b60006020828403121561071457600080fd5b61071d826106d9565b9392505050565b6000806040838503121561073757600080fd5b610740836106d9565b915061074e602084016106d9565b90509250929050565b805169ffffffffffffffffffff811681146106fd57600080fd5b600080600080600060a0868803121561078957600080fd5b61079286610757565b94506020860151935060408601519250606086015191506107b560808701610757565b9050929550929590935056fea2646970667358221220a52b81c8b58fb846a90f5000713a3a0a0e4e18d23b20dcf1ece44bbf6244090a64736f6c634300080e0033",
    "linkReferences": {}
  },
  "methodIdentifiers": {
    "WETH9()": "4aa4a4fc",
    "addAsset(address,uint256,address)": "cb2a0f56",
    "approve(address,uint256)": "095ea7b3",
    "assets(address)": "f11b8188",
    "balanceOf(address)": "70a08231",
    "changeAssetProportion(address,uint256)": "7e609942",
    "deposit(uint256)": "b6b55f25",
    "getApproved(uint256)": "081812fc",
    "getAssetProportion(address)": "9b306aa1",
    "getAssetValue(address)": "93e5e90f",
    "getNFTShare(uint256)": "5c9ff291",
    "getNFTValue(uint256)": "f5962e2d",
    "getPortfolioValue()": "bb0498de",
    "getRemainingProportion()": "2226a4c0",
    "getTokens()": "aa6ca808",
    "invite(address)": "4b77c468",
    "isApprovedForAll(address,address)": "e985e9c5",
    "name()": "06fdde03",
    "owner()": "8da5cb5b",
    "ownerOf(uint256)": "6352211e",
    "owners(address)": "022914a7",
    "poolFee()": "089fe6aa",
    "rebalance()": "7d7c2a1c",
    "renounceOwnership()": "715018a6",
    "safeTransferFrom(address,address,uint256)": "42842e0e",
    "safeTransferFrom(address,address,uint256,bytes)": "b88d4fde",
    "setApprovalForAll(address,bool)": "a22cb465",
    "shareOf(uint256)": "26ca291b",
    "shares(uint256)": "57a858fc",
    "supportsInterface(bytes4)": "01ffc9a7",
    "swapRouter()": "c31c9c07",
    "symbol()": "95d89b41",
    "tokenIdOf(address)": "773c02d4",
    "tokenURI(uint256)": "c87b56dd",
    "tokens(uint256)": "4f64b2be",
    "totalSupply()": "18160ddd",
    "transferFrom(address,address,uint256)": "23b872dd",
    "transferOwnership(address)": "f2fde38b",
    "withdraw(uint256,uint256)": "441a3e70"
  },
  "id": 37
}