{
  "abi": [
    {
      "inputs": [
        {
          "internalType": "address",
          "name": "_weth",
          "type": "address"
        },
        {
          "internalType": "address",
          "name": "_swapRouter",
          "type": "address"
        },
        {
          "internalType": "address",
          "name": "_priceFeed",
          "type": "address"
        }
      ],
      "stateMutability": "nonpayable",
      "type": "constructor"
    },
    {
      "anonymous": false,
      "inputs": [
        {
          "indexed": true,
          "internalType": "address",
          "name": "owner",
          "type": "address"
        },
        {
          "indexed": true,
          "internalType": "address",
          "name": "approved",
          "type": "address"
        },
        {
          "indexed": true,
          "internalType": "uint256",
          "name": "tokenId",
          "type": "uint256"
        }
      ],
      "name": "Approval",
      "type": "event"
    },
    {
      "anonymous": false,
      "inputs": [
        {
          "indexed": true,
          "internalType": "address",
          "name": "owner",
          "type": "address"
        },
        {
          "indexed": true,
          "internalType": "address",
          "name": "operator",
          "type": "address"
        },
        {
          "indexed": false,
          "internalType": "bool",
          "name": "approved",
          "type": "bool"
        }
      ],
      "name": "ApprovalForAll",
      "type": "event"
    },
    {
      "anonymous": false,
      "inputs": [
        {
          "indexed": false,
          "internalType": "address",
          "name": "token",
          "type": "address"
        },
        {
          "indexed": false,
          "internalType": "uint256",
          "name": "proportion",
          "type": "uint256"
        }
      ],
      "name": "AssetProportionChanged",
      "type": "event"
    },
    {
      "anonymous": false,
      "inputs": [
        {
          "indexed": false,
          "internalType": "address",
          "name": "token",
          "type": "address"
        },
        {
          "indexed": false,
          "internalType": "uint256",
          "name": "balance",
          "type": "uint256"
        },
        {
          "indexed": false,
          "internalType": "uint256",
          "name": "value",
          "type": "uint256"
        },
        {
          "indexed": false,
          "internalType": "uint256",
          "name": "required_value",
          "type": "uint256"
        },
        {
          "indexed": false,
          "internalType": "uint256",
          "name": "proportion",
          "type": "uint256"
        }
      ],
      "name": "AssetState",
      "type": "event"
    },
    {
      "anonymous": false,
      "inputs": [
        {
          "indexed": false,
          "internalType": "address",
          "name": "token",
          "type": "address"
        },
        {
          "indexed": false,
          "internalType": "uint256",
          "name": "amount",
          "type": "uint256"
        },
        {
          "indexed": false,
          "internalType": "uint256",
          "name": "minOut",
          "type": "uint256"
        }
      ],
      "name": "Buy",
      "type": "event"
    },
    {
      "anonymous": false,
      "inputs": [
        {
          "indexed": true,
          "internalType": "address",
          "name": "previousOwner",
          "type": "address"
        },
        {
          "indexed": true,
          "internalType": "address",
          "name": "newOwner",
          "type": "address"
        }
      ],
      "name": "OwnershipTransferred",
      "type": "event"
    },
    {
      "anonymous": false,
      "inputs": [
        {
          "indexed": false,
          "internalType": "address",
          "name": "token",
          "type": "address"
        },
        {
          "indexed": false,
          "internalType": "uint256",
          "name": "amount",
          "type": "uint256"
        },
        {
          "indexed": false,
          "internalType": "uint256",
          "name": "minOut",
          "type": "uint256"
        }
      ],
      "name": "Sell",
      "type": "event"
    },
    {
      "anonymous": false,
      "inputs": [
        {
          "indexed": true,
          "internalType": "address",
          "name": "from",
          "type": "address"
        },
        {
          "indexed": true,
          "internalType": "address",
          "name": "to",
          "type": "address"
        },
        {
          "indexed": true,
          "internalType": "uint256",
          "name": "tokenId",
          "type": "uint256"
        }
      ],
      "name": "Transfer",
      "type": "event"
    },
    {
      "inputs": [],
      "name": "WETH9",
      "outputs": [
        {
          "internalType": "contract IWETH9",
          "name": "",
          "type": "address"
        }
      ],
      "stateMutability": "view",
      "type": "function"
    },
    {
      "inputs": [
        {
          "internalType": "address",
          "name": "_token",
          "type": "address"
        },
        {
          "internalType": "uint256",
          "name": "_proportion",
          "type": "uint256"
        },
        {
          "internalType": "address",
          "name": "_priceFeed",
          "type": "address"
        }
      ],
      "name": "addAsset",
      "outputs": [],
      "stateMutability": "nonpayable",
      "type": "function"
    },
    {
      "inputs": [
        {
          "internalType": "address",
          "name": "to",
          "type": "address"
        },
        {
          "internalType": "uint256",
          "name": "tokenId",
          "type": "uint256"
        }
      ],
      "name": "approve",
      "outputs": [],
      "stateMutability": "nonpayable",
      "type": "function"
    },
    {
      "inputs": [
        {
          "internalType": "address",
          "name": "",
          "type": "address"
        }
      ],
      "name": "assets",
      "outputs": [
        {
          "internalType": "bool",
          "name": "active",
          "type": "bool"
        },
        {
          "internalType": "uint256",
          "name": "proportion",
          "type": "uint256"
        }
      ],
      "stateMutability": "view",
      "type": "function"
    },
    {
      "inputs": [
        {
          "internalType": "address",
          "name": "owner",
          "type": "address"
        }
      ],
      "name": "balanceOf",
      "outputs": [
        {
          "internalType": "uint256",
          "name": "",
          "type": "uint256"
        }
      ],
      "stateMutability": "view",
      "type": "function"
    },
    {
      "inputs": [
        {
          "internalType": "address",
          "name": "_token",
          "type": "address"
        },
        {
          "internalType": "uint256",
          "name": "_proportion",
          "type": "uint256"
        }
      ],
      "name": "changeAssetProportion",
      "outputs": [],
      "stateMutability": "nonpayable",
      "type": "function"
    },
    {
      "inputs": [
        {
          "internalType": "uint256",
          "name": "_nftId",
          "type": "uint256"
        }
      ],
      "name": "deposit",
      "outputs": [],
      "stateMutability": "payable",
      "type": "function"
    },
    {
      "inputs": [
        {
          "internalType": "uint256",
          "name": "tokenId",
          "type": "uint256"
        }
      ],
      "name": "getApproved",
      "outputs": [
        {
          "internalType": "address",
          "name": "",
          "type": "address"
        }
      ],
      "stateMutability": "view",
      "type": "function"
    },
    {
      "inputs": [
        {
          "internalType": "address",
          "name": "_token",
          "type": "address"
        }
      ],
      "name": "getAssetProportion",
      "outputs": [
        {
          "internalType": "uint256",
          "name": "",
          "type": "uint256"
        }
      ],
      "stateMutability": "view",
      "type": "function"
    },
    {
      "inputs": [
        {
          "internalType": "address",
          "name": "_token",
          "type": "address"
        }
      ],
      "name": "getAssetValue",
      "outputs": [
        {
          "internalType": "uint256",
          "name": "",
          "type": "uint256"
        }
      ],
      "stateMutability": "view",
      "type": "function"
    },
    {
      "inputs": [],
      "name": "getAssets",
      "outputs": [
        {
          "components": [
            {
              "internalType": "address",
              "name": "token",
              "type": "address"
            },
            {
              "internalType": "bool",
              "name": "active",
              "type": "bool"
            },
            {
              "internalType": "uint256",
              "name": "proportion",
              "type": "uint256"
            },
            {
              "internalType": "uint256",
              "name": "amount",
              "type": "uint256"
            },
            {
              "internalType": "uint256",
              "name": "decimals",
              "type": "uint256"
            },
            {
              "internalType": "uint256",
              "name": "price",
              "type": "uint256"
            },
            {
              "internalType": "uint256",
              "name": "balance",
              "type": "uint256"
            }
          ],
          "internalType": "struct Portfolio.AssetData[]",
          "name": "",
          "type": "tuple[]"
        }
      ],
      "stateMutability": "view",
      "type": "function"
    },
    {
      "inputs": [
        {
          "internalType": "uint256",
          "name": "_nftId",
          "type": "uint256"
        }
      ],
      "name": "getNFTShare",
      "outputs": [
        {
          "internalType": "uint256",
          "name": "",
          "type": "uint256"
        },
        {
          "internalType": "address",
          "name": "",
          "type": "address"
        }
      ],
      "stateMutability": "view",
      "type": "function"
    },
    {
      "inputs": [
        {
          "internalType": "uint256",
          "name": "_nftId",
          "type": "uint256"
        }
      ],
      "name": "getNFTValue",
      "outputs": [
        {
          "internalType": "uint256",
          "name": "",
          "type": "uint256"
        },
        {
          "internalType": "address",
          "name": "",
          "type": "address"
        }
      ],
      "stateMutability": "view",
      "type": "function"
    },
    {
      "inputs": [],
      "name": "getPortfolioValue",
      "outputs": [
        {
          "internalType": "uint256",
          "name": "",
          "type": "uint256"
        }
      ],
      "stateMutability": "view",
      "type": "function"
    },
    {
      "inputs": [],
      "name": "getRemainingProportion",
      "outputs": [
        {
          "internalType": "uint256",
          "name": "",
          "type": "uint256"
        }
      ],
      "stateMutability": "view",
      "type": "function"
    },
    {
      "inputs": [],
      "name": "getTokens",
      "outputs": [
        {
          "internalType": "address[]",
          "name": "",
          "type": "address[]"
        }
      ],
      "stateMutability": "view",
      "type": "function"
    },
    {
      "inputs": [
        {
          "internalType": "address",
          "name": "user",
          "type": "address"
        }
      ],
      "name": "invite",
      "outputs": [
        {
          "internalType": "uint256",
          "name": "",
          "type": "uint256"
        }
      ],
      "stateMutability": "nonpayable",
      "type": "function"
    },
    {
      "inputs": [
        {
          "internalType": "address",
          "name": "owner",
          "type": "address"
        },
        {
          "internalType": "address",
          "name": "operator",
          "type": "address"
        }
      ],
      "name": "isApprovedForAll",
      "outputs": [
        {
          "internalType": "bool",
          "name": "",
          "type": "bool"
        }
      ],
      "stateMutability": "view",
      "type": "function"
    },
    {
      "inputs": [],
      "name": "name",
      "outputs": [
        {
          "internalType": "string",
          "name": "",
          "type": "string"
        }
      ],
      "stateMutability": "view",
      "type": "function"
    },
    {
      "inputs": [],
      "name": "owner",
      "outputs": [
        {
          "internalType": "address",
          "name": "",
          "type": "address"
        }
      ],
      "stateMutability": "view",
      "type": "function"
    },
    {
      "inputs": [
        {
          "internalType": "uint256",
          "name": "tokenId",
          "type": "uint256"
        }
      ],
      "name": "ownerOf",
      "outputs": [
        {
          "internalType": "address",
          "name": "",
          "type": "address"
        }
      ],
      "stateMutability": "view",
      "type": "function"
    },
    {
      "inputs": [
        {
          "internalType": "address",
          "name": "",
          "type": "address"
        }
      ],
      "name": "owners",
      "outputs": [
        {
          "internalType": "uint256",
          "name": "",
          "type": "uint256"
        }
      ],
      "stateMutability": "view",
      "type": "function"
    },
    {
      "inputs": [],
      "name": "poolFee",
      "outputs": [
        {
          "internalType": "uint24",
          "name": "",
          "type": "uint24"
        }
      ],
      "stateMutability": "view",
      "type": "function"
    },
    {
      "inputs": [],
      "name": "rebalance",
      "outputs": [],
      "stateMutability": "nonpayable",
      "type": "function"
    },
    {
      "inputs": [],
      "name": "renounceOwnership",
      "outputs": [],
      "stateMutability": "nonpayable",
      "type": "function"
    },
    {
      "inputs": [
        {
          "internalType": "address",
          "name": "from",
          "type": "address"
        },
        {
          "internalType": "address",
          "name": "to",
          "type": "address"
        },
        {
          "internalType": "uint256",
          "name": "tokenId",
          "type": "uint256"
        }
      ],
      "name": "safeTransferFrom",
      "outputs": [],
      "stateMutability": "nonpayable",
      "type": "function"
    },
    {
      "inputs": [
        {
          "internalType": "address",
          "name": "from",
          "type": "address"
        },
        {
          "internalType": "address",
          "name": "to",
          "type": "address"
        },
        {
          "internalType": "uint256",
          "name": "tokenId",
          "type": "uint256"
        },
        {
          "internalType": "bytes",
          "name": "data",
          "type": "bytes"
        }
      ],
      "name": "safeTransferFrom",
      "outputs": [],
      "stateMutability": "nonpayable",
      "type": "function"
    },
    {
      "inputs": [
        {
          "internalType": "address",
          "name": "operator",
          "type": "address"
        },
        {
          "internalType": "bool",
          "name": "approved",
          "type": "bool"
        }
      ],
      "name": "setApprovalForAll",
      "outputs": [],
      "stateMutability": "nonpayable",
      "type": "function"
    },
    {
      "inputs": [
        {
          "internalType": "uint256",
          "name": "tokenId",
          "type": "uint256"
        }
      ],
      "name": "shareOf",
      "outputs": [
        {
          "internalType": "uint256",
          "name": "",
          "type": "uint256"
        }
      ],
      "stateMutability": "view",
      "type": "function"
    },
    {
      "inputs": [
        {
          "internalType": "uint256",
          "name": "",
          "type": "uint256"
        }
      ],
      "name": "shares",
      "outputs": [
        {
          "internalType": "uint256",
          "name": "",
          "type": "uint256"
        }
      ],
      "stateMutability": "view",
      "type": "function"
    },
    {
      "inputs": [
        {
          "internalType": "bytes4",
          "name": "interfaceId",
          "type": "bytes4"
        }
      ],
      "name": "supportsInterface",
      "outputs": [
        {
          "internalType": "bool",
          "name": "",
          "type": "bool"
        }
      ],
      "stateMutability": "view",
      "type": "function"
    },
    {
      "inputs": [],
      "name": "swapRouter",
      "outputs": [
        {
          "internalType": "contract ISwapRouter",
          "name": "",
          "type": "address"
        }
      ],
      "stateMutability": "view",
      "type": "function"
    },
    {
      "inputs": [],
      "name": "symbol",
      "outputs": [
        {
          "internalType": "string",
          "name": "",
          "type": "string"
        }
      ],
      "stateMutability": "view",
      "type": "function"
    },
    {
      "inputs": [
        {
          "internalType": "address",
          "name": "owner",
          "type": "address"
        }
      ],
      "name": "tokenIdOf",
      "outputs": [
        {
          "internalType": "uint256",
          "name": "",
          "type": "uint256"
        }
      ],
      "stateMutability": "view",
      "type": "function"
    },
    {
      "inputs": [
        {
          "internalType": "uint256",
          "name": "tokenId",
          "type": "uint256"
        }
      ],
      "name": "tokenURI",
      "outputs": [
        {
          "internalType": "string",
          "name": "",
          "type": "string"
        }
      ],
      "stateMutability": "view",
      "type": "function"
    },
    {
      "inputs": [
        {
          "internalType": "uint256",
          "name": "",
          "type": "uint256"
        }
      ],
      "name": "tokens",
      "outputs": [
        {
          "internalType": "address",
          "name": "",
          "type": "address"
        }
      ],
      "stateMutability": "view",
      "type": "function"
    },
    {
      "inputs": [],
      "name": "totalSupply",
      "outputs": [
        {
          "internalType": "uint256",
          "name": "",
          "type": "uint256"
        }
      ],
      "stateMutability": "view",
      "type": "function"
    },
    {
      "inputs": [
        {
          "internalType": "address",
          "name": "from",
          "type": "address"
        },
        {
          "internalType": "address",
          "name": "to",
          "type": "address"
        },
        {
          "internalType": "uint256",
          "name": "tokenId",
          "type": "uint256"
        }
      ],
      "name": "transferFrom",
      "outputs": [],
      "stateMutability": "nonpayable",
      "type": "function"
    },
    {
      "inputs": [
        {
          "internalType": "address",
          "name": "newOwner",
          "type": "address"
        }
      ],
      "name": "transferOwnership",
      "outputs": [],
      "stateMutability": "nonpayable",
      "type": "function"
    },
    {
      "inputs": [
        {
          "internalType": "uint256",
          "name": "_nftId",
          "type": "uint256"
        },
        {
          "internalType": "uint256",
          "name": "_amount",
          "type": "uint256"
        }
      ],
      "name": "withdraw",
      "outputs": [],
      "stateMutability": "nonpayable",
      "type": "function"
    },
    {
      "stateMutability": "payable",
      "type": "receive"
    }
  ],
  "bytecode": {
    "object": "0x60c06040526305f5e100600f553480156200001957600080fd5b50604051620052a7380380620052a78339810160408190526200003c9162000351565b6040518060400160405280600a81526020016914da185c9959119d5b9960b21b81525060405180604001604052806005815260200164534841465560d81b81525062000097620000916200022c60201b60201c565b62000230565b8151620000ac90600190602085019062000280565b508051620000c290600290602084019062000280565b5050506001600160a01b03808416608081905290831660a052600a80546001600160a01b031916821790556040805163313ce56760e01b8152905163313ce567916004808201926020929091908290030181865afa15801562000129573d6000803e3d6000fd5b505050506040513d601f19601f820116820180604052508101906200014f91906200039b565b6200015c90600a620004dc565b600b556040518390829062000171906200030f565b6001600160a01b03928316815291166020820152604001604051809103906000f080158015620001a5573d6000803e3d6000fd5b50600e80546001600160a01b039283166001600160a01b03199182161790915593166000818152600c60205260408120612710600182810191909155815460ff19168117909155600d805491820181559091527fd7b6990105719101dabeb77144f2a3385c8033acd3af97e9423a695e81ad1eb50180549094161790925550620005299050565b3390565b600080546001600160a01b038381166001600160a01b0319831681178455604051919092169283917f8be0079c531659141344cd1fd0a4f28419497f9722a3daafe3b4186f6b6457e09190a35050565b8280546200028e90620004ed565b90600052602060002090601f016020900481019282620002b25760008555620002fd565b82601f10620002cd57805160ff1916838001178555620002fd565b82800160010185558215620002fd579182015b82811115620002fd578251825591602001919060010190620002e0565b506200030b9291506200031d565b5090565b61090e806200499983390190565b5b808211156200030b57600081556001016200031e565b80516001600160a01b03811681146200034c57600080fd5b919050565b6000806000606084860312156200036757600080fd5b620003728462000334565b9250620003826020850162000334565b9150620003926040850162000334565b90509250925092565b600060208284031215620003ae57600080fd5b815160ff81168114620003c057600080fd5b9392505050565b634e487b7160e01b600052601160045260246000fd5b600181815b808511156200041e578160001904821115620004025762000402620003c7565b808516156200041057918102915b93841c9390800290620003e2565b509250929050565b6000826200043757506001620004d6565b816200044657506000620004d6565b81600181146200045f57600281146200046a576200048a565b6001915050620004d6565b60ff8411156200047e576200047e620003c7565b50506001821b620004d6565b5060208310610133831016604e8410600b8410161715620004af575081810a620004d6565b620004bb8383620003dd565b8060001904821115620004d257620004d2620003c7565b0290505b92915050565b6000620003c060ff84168362000426565b600181811c908216806200050257607f821691505b6020821081036200052357634e487b7160e01b600052602260045260246000fd5b50919050565b60805160a0516143f6620005a36000396000818161079d0152818161340c01526134ee0152600081816102cf015281816104e001528181610be201528181610f090152818161170301528181611d2d01528181611e4301528181611ea001528181612277015281816127cd0152612ec601526143f66000f3fe6080604052600436106102bf5760003560e01c8063715018a61161016e578063b6b55f25116100cb578063cb2a0f561161007f578063f11b818811610064578063f11b818814610848578063f2fde38b14610899578063f5962e2d146108b957600080fd5b8063cb2a0f56146107df578063e985e9c5146107ff57600080fd5b8063bb0498de116100b0578063bb0498de14610776578063c31c9c071461078b578063c87b56dd146107bf57600080fd5b8063b6b55f2514610743578063b88d4fde1461075657600080fd5b806393e5e90f116101225780639b306aa1116101075780639b306aa1146106e1578063a22cb46514610701578063aa6ca8081461072157600080fd5b806393e5e90f146106ac57806395d89b41146106cc57600080fd5b80637d7c2a1c116101535780637d7c2a1c146106595780637e6099421461066e5780638da5cb5b1461068e57600080fd5b8063715018a61461060e578063773c02d41461062357600080fd5b806342842e0e1161021c57806357a858fc116101d05780636352211e116101b55780636352211e146105ac57806367e4ac2c146105cc57806370a08231146105ee57600080fd5b806357a858fc146105425780635c9ff2911461056f57600080fd5b80634aa4a4fc116102015780634aa4a4fc146104ce5780634b77c468146105025780634f64b2be1461052257600080fd5b806342842e0e1461048e578063441a3e70146104ae57600080fd5b8063095ea7b3116102735780632226a4c0116102585780632226a4c01461042c57806323b872dd1461044157806326ca291b1461046157600080fd5b8063095ea7b3146103f757806318160ddd1461041757600080fd5b806306fdde03116102a457806306fdde0314610373578063081812fc14610395578063089fe6aa146103cd57600080fd5b806301ffc9a714610303578063022914a71461033857600080fd5b366102fe57336001600160a01b037f000000000000000000000000000000000000000000000000000000000000000016146102fc576102fc613b85565b005b600080fd5b34801561030f57600080fd5b5061032361031e366004613be2565b6108d9565b60405190151581526020015b60405180910390f35b34801561034457600080fd5b50610365610353366004613c1b565b60096020526000908152604090205481565b60405190815260200161032f565b34801561037f57600080fd5b506103886109be565b60405161032f9190613cac565b3480156103a157600080fd5b506103b56103b0366004613cbf565b610a50565b6040516001600160a01b03909116815260200161032f565b3480156103d957600080fd5b506103e3610bb881565b60405162ffffff909116815260200161032f565b34801561040357600080fd5b506102fc610412366004613cd8565b610a77565b34801561042357600080fd5b50610365610bcb565b34801561043857600080fd5b50610365610bdb565b34801561044d57600080fd5b506102fc61045c366004613d02565b610c06565b34801561046d57600080fd5b5061036561047c366004613cbf565b60009081526008602052604090205490565b34801561049a57600080fd5b506102fc6104a9366004613d02565b610caa565b3480156104ba57600080fd5b506102fc6104c9366004613d3e565b610cc5565b3480156104da57600080fd5b506103b57f000000000000000000000000000000000000000000000000000000000000000081565b34801561050e57600080fd5b5061036561051d366004613c1b565b610fa8565b34801561052e57600080fd5b506103b561053d366004613cbf565b611009565b34801561054e57600080fd5b5061036561055d366004613cbf565b60086020526000908152604090205481565b34801561057b57600080fd5b5061058f61058a366004613cbf565b611033565b604080519283526001600160a01b0390911660208301520161032f565b3480156105b857600080fd5b506103b56105c7366004613cbf565b61105b565b3480156105d857600080fd5b506105e16110c0565b60405161032f9190613d60565b3480156105fa57600080fd5b50610365610609366004613c1b565b61157f565b34801561061a57600080fd5b506102fc611619565b34801561062f57600080fd5b5061036561063e366004613c1b565b6001600160a01b031660009081526009602052604090205490565b34801561066557600080fd5b506102fc61162d565b34801561067a57600080fd5b506102fc610689366004613cd8565b611c8e565b34801561069a57600080fd5b506000546001600160a01b03166103b5565b3480156106b857600080fd5b506103656106c7366004613c1b565b611f1d565b3480156106d857600080fd5b506103886120d4565b3480156106ed57600080fd5b506103656106fc366004613c1b565b6120e3565b34801561070d57600080fd5b506102fc61071c366004613dfb565b612198565b34801561072d57600080fd5b506107366121a7565b60405161032f9190613e32565b6102fc610751366004613cbf565b612208565b34801561076257600080fd5b506102fc610771366004613eae565b612365565b34801561078257600080fd5b506103656123f3565b34801561079757600080fd5b506103b57f000000000000000000000000000000000000000000000000000000000000000081565b3480156107cb57600080fd5b506103886107da366004613cbf565b612646565b3480156107eb57600080fd5b506102fc6107fa366004613fa8565b6126ba565b34801561080b57600080fd5b5061032361081a366004613fe4565b6001600160a01b03918216600090815260066020908152604080832093909416825291909152205460ff1690565b34801561085457600080fd5b50610882610863366004613c1b565b600c602052600090815260409020805460019091015460ff9091169082565b60408051921515835260208301919091520161032f565b3480156108a557600080fd5b506102fc6108b4366004613c1b565b612929565b3480156108c557600080fd5b5061058f6108d4366004613cbf565b6129b9565b60007fffffffff0000000000000000000000000000000000000000000000000000000082167f80ac58cd00000000000000000000000000000000000000000000000000000000148061096c57507fffffffff0000000000000000000000000000000000000000000000000000000082167f5b5e139f00000000000000000000000000000000000000000000000000000000145b806109b857507f01ffc9a7000000000000000000000000000000000000000000000000000000007fffffffff000000000000000000000000000000000000000000000000000000008316145b92915050565b6060600180546109cd90614017565b80601f01602080910402602001604051908101604052809291908181526020018280546109f990614017565b8015610a465780601f10610a1b57610100808354040283529160200191610a46565b820191906000526020600020905b815481529060010190602001808311610a2957829003601f168201915b5050505050905090565b6000610a5b82612a09565b506000908152600560205260409020546001600160a01b031690565b6000610a828261105b565b9050806001600160a01b0316836001600160a01b031603610b105760405162461bcd60e51b815260206004820152602160248201527f4552433732313a20617070726f76616c20746f2063757272656e74206f776e6560448201527f720000000000000000000000000000000000000000000000000000000000000060648201526084015b60405180910390fd5b336001600160a01b0382161480610b4a57506001600160a01b038116600090815260066020908152604080832033845290915290205460ff165b610bbc5760405162461bcd60e51b815260206004820152603d60248201527f4552433732313a20617070726f76652063616c6c6572206973206e6f7420746f60448201527f6b656e206f776e6572206f7220617070726f76656420666f7220616c6c0000006064820152608401610b07565b610bc68383612a6d565b505050565b6000610bd660075490565b905090565b6000610bd67f00000000000000000000000000000000000000000000000000000000000000006120e3565b610c103382612af3565b610c825760405162461bcd60e51b815260206004820152602d60248201527f4552433732313a2063616c6c6572206973206e6f7420746f6b656e206f776e6560448201527f72206f7220617070726f766564000000000000000000000000000000000000006064820152608401610b07565b610c8d838383612b71565b6001600160a01b0390911660009081526009602052604090205550565b610bc683838360405180602001604052806000815250612365565b8133610cd08261105b565b6001600160a01b031614610d265760405162461bcd60e51b815260206004820152601060248201527f43414c4c45525f4e4f545f4f574e4552000000000000000000000000000000006044820152606401610b07565b612710821115610d9e5760405162461bcd60e51b815260206004820152602360248201527f416d6f756e74206d7573742072616e6765206265747765656e203020616e642060448201527f31653400000000000000000000000000000000000000000000000000000000006064820152608401610b07565b60008381526008602052604081205490610db66123f3565b90506000610dc48284612ddd565b90506000610ddc86610dd68587612ddd565b90612ddd565b905082811115610e545760405162461bcd60e51b815260206004820152603460248201527f57697468647261776e2076616c7565206d757374206e6f74206265206772656160448201527f746572207468616e20746f74616c2076616c75650000000000000000000000006064820152608401610b07565b6000610e608284614093565b90506000610e6e8386614093565b9050610e7a8582612e20565b60006127108903610e8d57506000610ea7565b81610e9a612710856140aa565b610ea491906140e7565b90505b60008a8152600860205260408120829055610ec0612e93565b600b54610ecd90876140aa565b610ed791906140e7565b6040517f2e1a7d4d000000000000000000000000000000000000000000000000000000008152600481018290529091507f00000000000000000000000000000000000000000000000000000000000000006001600160a01b031690632e1a7d4d90602401600060405180830381600087803b158015610f5557600080fd5b505af1158015610f69573d6000803e3d6000fd5b505060405133925083156108fc02915083906000818181858888f19350505050158015610f9a573d6000803e3d6000fd5b505050505050505050505050565b6000610fb38261157f565b156110005760405162461bcd60e51b815260206004820152601560248201527f5573657220616c72656164792061206d656d62657200000000000000000000006044820152606401610b07565b6109b882612f3e565b600d818154811061101957600080fd5b6000918252602090912001546001600160a01b0316905081565b6000818152600860205260408120548190600061104f8561105b565b91959194509092505050565b6000818152600360205260408120546001600160a01b0316806109b85760405162461bcd60e51b815260206004820152601860248201527f4552433732313a20696e76616c696420746f6b656e20494400000000000000006044820152606401610b07565b600d5460609060009067ffffffffffffffff8111156110e1576110e1613e7f565b60405190808252806020026020018201604052801561115d57816020015b61114a6040518060e0016040528060006001600160a01b0316815260200160001515815260200160008152602001600081526020016000815260200160008152602001600081525090565b8152602001906001900390816110ff5790505b50905060005b600d5481101561157957600d818154811061118057611180614122565b9060005260206000200160009054906101000a90046001600160a01b03168282815181106111b0576111b0614122565b6020026020010151600001906001600160a01b031690816001600160a01b031681525050600c6000600d83815481106111eb576111eb614122565b60009182526020808320909101546001600160a01b03168352820192909252604001902054825160ff9091169083908390811061122a5761122a614122565b60200260200101516020019015159081151581525050600c6000600d838154811061125757611257614122565b60009182526020808320909101546001600160a01b03168352820192909252604001902060010154825183908390811061129357611293614122565b60200260200101516040018181525050600d81815481106112b6576112b6614122565b6000918252602090912001546040517f70a082310000000000000000000000000000000000000000000000000000000081523060048201526001600160a01b03909116906370a0823190602401602060405180830381865afa158015611320573d6000803e3d6000fd5b505050506040513d601f19601f820116820180604052508101906113449190614151565b82828151811061135657611356614122565b60200260200101516060018181525050600d818154811061137957611379614122565b60009182526020918290200154604080517f313ce56700000000000000000000000000000000000000000000000000000000815290516001600160a01b039092169263313ce567926004808401938290030181865afa1580156113e0573d6000803e3d6000fd5b505050506040513d601f19601f82011682018060405250810190611404919061416a565b60ff1682828151811061141957611419614122565b602090810291909101015160800152600e54600d80546001600160a01b03909216916316345f1891908490811061145257611452614122565b60009182526020909120015460405160e083901b7fffffffff000000000000000000000000000000000000000000000000000000001681526001600160a01b039091166004820152602401602060405180830381865afa1580156114ba573d6000803e3d6000fd5b505050506040513d601f19601f820116820180604052508101906114de9190614151565b8282815181106114f0576114f0614122565b602002602001015160a001818152505081818151811061151257611512614122565b602002602001015160a0015182828151811061153057611530614122565b60200260200101516060015161154691906140aa565b82828151811061155857611558614122565b602090810291909101015160c00152806115718161418d565b915050611163565b50919050565b60006001600160a01b0382166115fd5760405162461bcd60e51b815260206004820152602960248201527f4552433732313a2061646472657373207a65726f206973206e6f74206120766160448201527f6c6964206f776e657200000000000000000000000000000000000000000000006064820152608401610b07565b506001600160a01b031660009081526004602052604090205490565b611621612f95565b61162b6000612fef565b565b60006116376123f3565b90506000611643612e93565b90506000606461165661271060036140aa565b61166091906140e7565b600d5490915060009067ffffffffffffffff81111561168157611681613e7f565b6040519080825280602002602001820160405280156116f157816020015b6040805160808101825260008082526020808301829052928201819052606082015282527fffffffffffffffffffffffffffffffffffffffffffffffffffffffffffffffff90920191018161169f5790505b50905060005b600d54811015611beb577f00000000000000000000000000000000000000000000000000000000000000006001600160a01b0316600d828154811061173e5761173e614122565b6000918252602090912001546001600160a01b031614611bd9576000612710600c6000600d858154811061177457611774614122565b60009182526020808320909101546001600160a01b031683528201929092526040019020600101546117a690886140aa565b6117b091906140e7565b600e54600d80549293506000926001600160a01b03909216916316345f189190869081106117e0576117e0614122565b60009182526020909120015460405160e083901b7fffffffff000000000000000000000000000000000000000000000000000000001681526001600160a01b039091166004820152602401602060405180830381865afa158015611848573d6000803e3d6000fd5b505050506040513d601f19601f8201168201806040525081019061186c9190614151565b90506000600d848154811061188357611883614122565b6000918252602090912001546040517f70a082310000000000000000000000000000000000000000000000000000000081523060048201526001600160a01b03909116906370a0823190602401602060405180830381865afa1580156118ed573d6000803e3d6000fd5b505050506040513d601f19601f820116820180604052508101906119119190614151565b90506000600d858154811061192857611928614122565b60009182526020918290200154604080517f313ce56700000000000000000000000000000000000000000000000000000000815290516001600160a01b039092169263313ce567926004808401938290030181865afa15801561198f573d6000803e3d6000fd5b505050506040513d601f19601f820116820180604052508101906119b3919061416a565b60ff16905060006119c582600a6142e5565b6119cf84866140aa565b6119d991906140e7565b90507f68c20c1a780bf657102be5c5b1bd21e12cec4f77ffd499672317601530fda302600d8781548110611a0f57611a0f614122565b9060005260206000200160009054906101000a90046001600160a01b0316848388600c6000600d8d81548110611a4757611a47614122565b6000918252602080832091909101546001600160a01b039081168452838201949094526040928301909120600101548251979093168752860194909452928401919091526060830152608082015260a00160405180910390a16000611aae89612710614093565b611ab890876140aa565b8210158015611adc5750611ace896127106142f1565b611ad890876140aa565b8211155b90508015611aef57505050505050611bd9565b600086831015611b6c57611b038388614093565b905060008b600b5483611b1691906140aa565b611b2091906140e7565b90506040518060800160405280600115158152602001600015158152602001828152602001888152508a8a81518110611b5b57611b5b614122565b602002602001018190525050611bd1565b611b768784614093565b9050600086611b8686600a6142e5565b611b9090846140aa565b611b9a91906140e7565b9050611bcf600d8a81548110611bb257611bb2614122565b60009182526020822001546001600160a01b03169083908a613057565b505b505050505050505b80611be38161418d565b9150506116f7565b5060005b600d54811015611c8757818181518110611c0b57611c0b614122565b60200260200101516000015115611c75576000828281518110611c3057611c30614122565b6020026020010151604001519050611c73600d8381548110611c5457611c54614122565b6000918252602090912001546001600160a01b0316826001600a613057565b505b80611c7f8161418d565b915050611bef565b5050505050565b611c96612f95565b6001600160a01b0382166000908152600c6020526040902054829060ff161515600114611d2b5760405162461bcd60e51b815260206004820152602660248201527f417373657420646f6573206e6f7420657869737420696e2074686520706f727460448201527f666f6c696f2e00000000000000000000000000000000000000000000000000006064820152608401610b07565b7f00000000000000000000000000000000000000000000000000000000000000006001600160a01b0316836001600160a01b031603611dd25760405162461bcd60e51b815260206004820152603160248201527f43616e6e6f74206368616e6765207468652070726f706f7274696f6e206f662060448201527f74686520626173652063757272656e63790000000000000000000000000000006064820152608401610b07565b6001600160a01b0383166000908152600c602052604081206001015490611df7610bdb565b6001600160a01b0386166000908152600c60205260409020600101859055905081841115611e7c57611e298285614093565b611e339082614093565b9050611e77816001600160a01b037f0000000000000000000000000000000000000000000000000000000000000000166000908152600c6020526040902060010155565b611ed4565b611e868483614093565b611e9090826142f1565b9050611ed4816001600160a01b037f0000000000000000000000000000000000000000000000000000000000000000166000908152600c6020526040902060010155565b604080516001600160a01b0387168152602081018690527fb51c0011094dfb717010eb3fac979826c5a5c243d173211895a461152fe5d8eb910160405180910390a15050505050565b6001600160a01b0381166000908152600c6020526040812054829060ff161515600114611fb25760405162461bcd60e51b815260206004820152602660248201527f417373657420646f6573206e6f7420657869737420696e2074686520706f727460448201527f666f6c696f2e00000000000000000000000000000000000000000000000000006064820152608401610b07565b6040517f70a082310000000000000000000000000000000000000000000000000000000081523060048201526000906001600160a01b038516906370a0823190602401602060405180830381865afa158015612012573d6000803e3d6000fd5b505050506040513d601f19601f820116820180604052508101906120369190614151565b600e546040517f16345f180000000000000000000000000000000000000000000000000000000081526001600160a01b0387811660048301529293508392909116906316345f1890602401602060405180830381865afa15801561209e573d6000803e3d6000fd5b505050506040513d601f19601f820116820180604052508101906120c29190614151565b6120cc91906140aa565b949350505050565b6060600280546109cd90614017565b6001600160a01b0381166000908152600c6020526040812054829060ff1615156001146121785760405162461bcd60e51b815260206004820152602660248201527f417373657420646f6573206e6f7420657869737420696e2074686520706f727460448201527f666f6c696f2e00000000000000000000000000000000000000000000000000006064820152608401610b07565b50506001600160a01b03166000908152600c602052604090206001015490565b6121a333838361312f565b5050565b6060600d805480602002602001604051908101604052809291908181526020018280548015610a4657602002820191906000526020600020905b81546001600160a01b031681526001909101906020018083116121e1575050505050905090565b80336122138261105b565b6001600160a01b0316146122695760405162461bcd60e51b815260206004820152601060248201527f43414c4c45525f4e4f545f4f574e4552000000000000000000000000000000006044820152606401610b07565b60006122736123f3565b90507f00000000000000000000000000000000000000000000000000000000000000006001600160a01b031663d0e30db0346040518263ffffffff1660e01b81526004016000604051808303818588803b1580156122d057600080fd5b505af11580156122e4573d6000803e3d6000fd5b505050505060006122f36123f3565b905060006123018383614093565b90506000836000036123165750612710612330565b82612323612710846140aa565b61232d91906140e7565b90505b61233a8484612e20565b600086815260086020526040812080548392906123589084906142f1565b9091555050505050505050565b61236f3383612af3565b6123e15760405162461bcd60e51b815260206004820152602d60248201527f4552433732313a2063616c6c6572206973206e6f7420746f6b656e206f776e6560448201527f72206f7220617070726f766564000000000000000000000000000000000000006064820152608401610b07565b6123ed8484848461321b565b50505050565b600080805b600d54811015611579576000600d828154811061241757612417614122565b6000918252602090912001546040517f70a082310000000000000000000000000000000000000000000000000000000081523060048201526001600160a01b03909116906370a0823190602401602060405180830381865afa158015612481573d6000803e3d6000fd5b505050506040513d601f19601f820116820180604052508101906124a59190614151565b90506000600d83815481106124bc576124bc614122565b60009182526020918290200154604080517f313ce56700000000000000000000000000000000000000000000000000000000815290516001600160a01b039092169263313ce567926004808401938290030181865afa158015612523573d6000803e3d6000fd5b505050506040513d601f19601f82011682018060405250810190612547919061416a565b60ff169050600061255982600a6142e5565b600e54600d805486926001600160a01b0316916316345f18918990811061258257612582614122565b60009182526020909120015460405160e083901b7fffffffff000000000000000000000000000000000000000000000000000000001681526001600160a01b039091166004820152602401602060405180830381865afa1580156125ea573d6000803e3d6000fd5b505050506040513d601f19601f8201168201806040525081019061260e9190614151565b61261891906140aa565b61262291906140e7565b905061262e81866142f1565b9450505050808061263e9061418d565b9150506123f8565b606061265182612a09565b600061266860408051602081019091526000815290565b9050600081511161268857604051806020016040528060008152506126b3565b80612692846132a4565b6040516020016126a3929190614309565b6040516020818303038152906040525b9392505050565b6126c2612f95565b6001600160a01b0383166000908152600c6020526040902054839060ff16156127535760405162461bcd60e51b815260206004820152602660248201527f417373657420616c72656164792065786973747320696e2074686520706f727460448201527f666f6c696f2e00000000000000000000000000000000000000000000000000006064820152608401610b07565b61275b610bdb565b8311156127aa5760405162461bcd60e51b815260206004820152601c60248201527f52454d41494e494e475f50524f504f5254494f4e5f544f4f5f4c4f57000000006044820152606401610b07565b60006127b4610bdb565b90506128016127c38583614093565b6001600160a01b037f0000000000000000000000000000000000000000000000000000000000000000166000908152600c6020526040902060010155565b600e546040517fe8a97a3e0000000000000000000000000000000000000000000000000000000081526001600160a01b03878116600483015285811660248301529091169063e8a97a3e90604401600060405180830381600087803b15801561286957600080fd5b505af115801561287d573d6000803e3d6000fd5b5050506001600160a01b039095166000818152600c6020526040812060018082019790975580547fffffffffffffffffffffffffffffffffffffffffffffffffffffffffffffff001687179055600d8054968701815590527fd7b6990105719101dabeb77144f2a3385c8033acd3af97e9423a695e81ad1eb590940180547fffffffffffffffffffffffff00000000000000000000000000000000000000001690941790935550505050565b612931612f95565b6001600160a01b0381166129ad5760405162461bcd60e51b815260206004820152602660248201527f4f776e61626c653a206e6577206f776e657220697320746865207a65726f206160448201527f64647265737300000000000000000000000000000000000000000000000000006064820152608401610b07565b6129b681612fef565b50565b600081815260086020526040812054819060006129d58561105b565b905060006129e16123f3565b905060006127106129f283866140aa565b6129fc91906140e7565b9792965091945050505050565b6000818152600360205260409020546001600160a01b03166129b65760405162461bcd60e51b815260206004820152601860248201527f4552433732313a20696e76616c696420746f6b656e20494400000000000000006044820152606401610b07565b600081815260056020526040902080547fffffffffffffffffffffffff0000000000000000000000000000000000000000166001600160a01b0384169081179091558190612aba8261105b565b6001600160a01b03167f8c5be1e5ebec7d5bd14f71427d1e84f3dd0314c0f7b2291e5b200ac8c7c3b92560405160405180910390a45050565b600080612aff8361105b565b9050806001600160a01b0316846001600160a01b03161480612b4657506001600160a01b0380821660009081526006602090815260408083209388168352929052205460ff165b806120cc5750836001600160a01b0316612b5f84610a50565b6001600160a01b031614949350505050565b826001600160a01b0316612b848261105b565b6001600160a01b031614612c005760405162461bcd60e51b815260206004820152602560248201527f4552433732313a207472616e736665722066726f6d20696e636f72726563742060448201527f6f776e65720000000000000000000000000000000000000000000000000000006064820152608401610b07565b6001600160a01b038216612c7b5760405162461bcd60e51b8152602060048201526024808201527f4552433732313a207472616e7366657220746f20746865207a65726f2061646460448201527f72657373000000000000000000000000000000000000000000000000000000006064820152608401610b07565b612c888383836001613362565b826001600160a01b0316612c9b8261105b565b6001600160a01b031614612d175760405162461bcd60e51b815260206004820152602560248201527f4552433732313a207472616e736665722066726f6d20696e636f72726563742060448201527f6f776e65720000000000000000000000000000000000000000000000000000006064820152608401610b07565b600081815260056020908152604080832080547fffffffffffffffffffffffff00000000000000000000000000000000000000009081169091556001600160a01b038781168086526004855283862080547fffffffffffffffffffffffffffffffffffffffffffffffffffffffffffffffff01905590871680865283862080546001019055868652600390945282852080549092168417909155905184937fddf252ad1be2c89b69c2b068fc378daa952ba7f163c4a11628f55a4df523b3ef91a4505050565b600081157fffffffffffffffffffffffffffffffffffffffffffffffffffffffffffffec7783900484111517612e1257600080fd5b506127109102611388010490565b811580612e2b575080155b15612e34575050565b60015b612e3f610bcb565b8111610bc657600081815260086020526040812054829184612e6183886140aa565b612e6b91906140e7565b6000938452600860205260409093209290925550819050612e8b8161418d565b915050612e37565b600e546040517f16345f180000000000000000000000000000000000000000000000000000000081526001600160a01b037f00000000000000000000000000000000000000000000000000000000000000008116600483015260009283929116906316345f1890602401602060405180830381865afa158015612f1a573d6000803e3d6000fd5b505050506040513d601f19601f820116820180604052508101906109b89190614151565b6000612f4e600780546001019055565b6000612f5960075490565b9050612f6583826133ea565b60008181526008602090815260408083208390556001600160a01b03909516825260099052929092208290555090565b6000546001600160a01b0316331461162b5760405162461bcd60e51b815260206004820181905260248201527f4f776e61626c653a2063616c6c6572206973206e6f7420746865206f776e65726044820152606401610b07565b600080546001600160a01b038381167fffffffffffffffffffffffff0000000000000000000000000000000000000000831681178455604051919092169283917f8be0079c531659141344cd1fd0a4f28419497f9722a3daafe3b4186f6b6457e09190a35050565b81156130c557600a54613075906001600160a01b0316858584613404565b50604080516001600160a01b0386168152602081018590529081018290527f1cbc5ab135991bd2b6a4b034a04aa2aa086dac1371cb9b16b8b5e2ed6b036bed9060600160405180910390a16123ed565b600a546130de9085906001600160a01b03168584613404565b50604080516001600160a01b0386168152602081018590529081018290527fed7a144fad14804d5c249145e3e0e2b63a9eb455b76aee5bc92d711e9bba3e4a9060600160405180910390a150505050565b816001600160a01b0316836001600160a01b0316036131905760405162461bcd60e51b815260206004820152601960248201527f4552433732313a20617070726f766520746f2063616c6c6572000000000000006044820152606401610b07565b6001600160a01b0383811660008181526006602090815260408083209487168084529482529182902080547fffffffffffffffffffffffffffffffffffffffffffffffffffffffffffffff001686151590811790915591519182527f17307eab39ab6107e8899845ad3d59bd9653f200f220920489ca2b5937696c31910160405180910390a3505050565b613226848484612b71565b61323284848484613568565b6123ed5760405162461bcd60e51b815260206004820152603260248201527f4552433732313a207472616e7366657220746f206e6f6e20455243373231526560448201527f63656976657220696d706c656d656e74657200000000000000000000000000006064820152608401610b07565b606060006132b183613727565b600101905060008167ffffffffffffffff8111156132d1576132d1613e7f565b6040519080825280601f01601f1916602001820160405280156132fb576020820181803683370190505b5090508181016020015b7fffffffffffffffffffffffffffffffffffffffffffffffffffffffffffffffff017f3031323334353637383961626364656600000000000000000000000000000000600a86061a8153600a850494508461330557509392505050565b60018111156123ed576001600160a01b038416156133a8576001600160a01b038416600090815260046020526040812080548392906133a2908490614093565b90915550505b6001600160a01b038316156123ed576001600160a01b038316600090815260046020526040812080548392906133df9084906142f1565b909155505050505050565b6121a3828260405180602001604052806000815250613809565b6000613431857f000000000000000000000000000000000000000000000000000000000000000085613892565b60408051610100810182526001600160a01b03878116825286811660208301908152610bb88385019081523060608501908152426080860190815260a086018a815260c087018a8152600060e0890190815298517f414bf389000000000000000000000000000000000000000000000000000000008152885188166004820152955187166024870152935162ffffff1660448601529151851660648501525160848401525160a48301525160c48201529251811660e484015290917f00000000000000000000000000000000000000000000000000000000000000009091169063414bf38990610104016020604051808303816000875af115801561353a573d6000803e3d6000fd5b505050506040513d601f19601f8201168201806040525081019061355e9190614151565b9695505050505050565b60006001600160a01b0384163b1561371c576040517f150b7a020000000000000000000000000000000000000000000000000000000081526001600160a01b0385169063150b7a02906135c5903390899088908890600401614338565b6020604051808303816000875af192505050801561361e575060408051601f3d9081017fffffffffffffffffffffffffffffffffffffffffffffffffffffffffffffffe016820190925261361b9181019061436a565b60015b6136d1573d80801561364c576040519150601f19603f3d011682016040523d82523d6000602084013e613651565b606091505b5080516000036136c95760405162461bcd60e51b815260206004820152603260248201527f4552433732313a207472616e7366657220746f206e6f6e20455243373231526560448201527f63656976657220696d706c656d656e74657200000000000000000000000000006064820152608401610b07565b805181602001fd5b7fffffffff00000000000000000000000000000000000000000000000000000000167f150b7a02000000000000000000000000000000000000000000000000000000001490506120cc565b506001949350505050565b6000807a184f03e93ff9f4daa797ed6e38ed64bf6a1f0100000000000000008310613770577a184f03e93ff9f4daa797ed6e38ed64bf6a1f010000000000000000830492506040015b6d04ee2d6d415b85acef8100000000831061379c576d04ee2d6d415b85acef8100000000830492506020015b662386f26fc1000083106137ba57662386f26fc10000830492506010015b6305f5e10083106137d2576305f5e100830492506008015b61271083106137e657612710830492506004015b606483106137f8576064830492506002015b600a83106109b85760010192915050565b61381383836139d4565b6138206000848484613568565b610bc65760405162461bcd60e51b815260206004820152603260248201527f4552433732313a207472616e7366657220746f206e6f6e20455243373231526560448201527f63656976657220696d706c656d656e74657200000000000000000000000000006064820152608401610b07565b604080516001600160a01b038481166024830152604480830185905283518084039091018152606490920183526020820180517bffffffffffffffffffffffffffffffffffffffffffffffffffffffff167f095ea7b300000000000000000000000000000000000000000000000000000000179052915160009283929087169161391c9190614387565b6000604051808303816000865af19150503d8060008114613959576040519150601f19603f3d011682016040523d82523d6000602084013e61395e565b606091505b509150915081801561398857508051158061398857508080602001905181019061398891906143a3565b611c875760405162461bcd60e51b815260206004820152600260248201527f53410000000000000000000000000000000000000000000000000000000000006044820152606401610b07565b6001600160a01b038216613a2a5760405162461bcd60e51b815260206004820181905260248201527f4552433732313a206d696e7420746f20746865207a65726f20616464726573736044820152606401610b07565b6000818152600360205260409020546001600160a01b031615613a8f5760405162461bcd60e51b815260206004820152601c60248201527f4552433732313a20746f6b656e20616c7265616479206d696e746564000000006044820152606401610b07565b613a9d600083836001613362565b6000818152600360205260409020546001600160a01b031615613b025760405162461bcd60e51b815260206004820152601c60248201527f4552433732313a20746f6b656e20616c7265616479206d696e746564000000006044820152606401610b07565b6001600160a01b038216600081815260046020908152604080832080546001019055848352600390915280822080547fffffffffffffffffffffffff0000000000000000000000000000000000000000168417905551839291907fddf252ad1be2c89b69c2b068fc378daa952ba7f163c4a11628f55a4df523b3ef908290a45050565b7f4e487b7100000000000000000000000000000000000000000000000000000000600052600160045260246000fd5b7fffffffff00000000000000000000000000000000000000000000000000000000811681146129b657600080fd5b600060208284031215613bf457600080fd5b81356126b381613bb4565b80356001600160a01b0381168114613c1657600080fd5b919050565b600060208284031215613c2d57600080fd5b6126b382613bff565b60005b83811015613c51578181015183820152602001613c39565b838111156123ed5750506000910152565b60008151808452613c7a816020860160208601613c36565b601f017fffffffffffffffffffffffffffffffffffffffffffffffffffffffffffffffe0169290920160200192915050565b6020815260006126b36020830184613c62565b600060208284031215613cd157600080fd5b5035919050565b60008060408385031215613ceb57600080fd5b613cf483613bff565b946020939093013593505050565b600080600060608486031215613d1757600080fd5b613d2084613bff565b9250613d2e60208501613bff565b9150604084013590509250925092565b60008060408385031215613d5157600080fd5b50508035926020909101359150565b602080825282518282018190526000919060409081850190868401855b82811015613de057815180516001600160a01b03168552868101511515878601528581015186860152606080820151908601526080808201519086015260a0808201519086015260c0908101519085015260e09093019290850190600101613d7d565b5091979650505050505050565b80151581146129b657600080fd5b60008060408385031215613e0e57600080fd5b613e1783613bff565b91506020830135613e2781613ded565b809150509250929050565b6020808252825182820181905260009190848201906040850190845b81811015613e735783516001600160a01b031683529284019291840191600101613e4e565b50909695505050505050565b7f4e487b7100000000000000000000000000000000000000000000000000000000600052604160045260246000fd5b60008060008060808587031215613ec457600080fd5b613ecd85613bff565b9350613edb60208601613bff565b925060408501359150606085013567ffffffffffffffff80821115613eff57600080fd5b818701915087601f830112613f1357600080fd5b813581811115613f2557613f25613e7f565b604051601f82017fffffffffffffffffffffffffffffffffffffffffffffffffffffffffffffffe0908116603f01168101908382118183101715613f6b57613f6b613e7f565b816040528281528a6020848701011115613f8457600080fd5b82602086016020830137600060208483010152809550505050505092959194509250565b600080600060608486031215613fbd57600080fd5b613fc684613bff565b925060208401359150613fdb60408501613bff565b90509250925092565b60008060408385031215613ff757600080fd5b61400083613bff565b915061400e60208401613bff565b90509250929050565b600181811c9082168061402b57607f821691505b602082108103611579577f4e487b7100000000000000000000000000000000000000000000000000000000600052602260045260246000fd5b7f4e487b7100000000000000000000000000000000000000000000000000000000600052601160045260246000fd5b6000828210156140a5576140a5614064565b500390565b6000817fffffffffffffffffffffffffffffffffffffffffffffffffffffffffffffffff04831182151516156140e2576140e2614064565b500290565b60008261411d577f4e487b7100000000000000000000000000000000000000000000000000000000600052601260045260246000fd5b500490565b7f4e487b7100000000000000000000000000000000000000000000000000000000600052603260045260246000fd5b60006020828403121561416357600080fd5b5051919050565b60006020828403121561417c57600080fd5b815160ff811681146126b357600080fd5b60007fffffffffffffffffffffffffffffffffffffffffffffffffffffffffffffffff82036141be576141be614064565b5060010190565b600181815b8085111561421e57817fffffffffffffffffffffffffffffffffffffffffffffffffffffffffffffffff0482111561420457614204614064565b8085161561421157918102915b93841c93908002906141ca565b509250929050565b600082614235575060016109b8565b81614242575060006109b8565b816001811461425857600281146142625761427e565b60019150506109b8565b60ff84111561427357614273614064565b50506001821b6109b8565b5060208310610133831016604e8410600b84101617156142a1575081810a6109b8565b6142ab83836141c5565b807fffffffffffffffffffffffffffffffffffffffffffffffffffffffffffffffff048211156142dd576142dd614064565b029392505050565b60006126b38383614226565b6000821982111561430457614304614064565b500190565b6000835161431b818460208801613c36565b83519083019061432f818360208801613c36565b01949350505050565b60006001600160a01b0380871683528086166020840152508360408301526080606083015261355e6080830184613c62565b60006020828403121561437c57600080fd5b81516126b381613bb4565b60008251614399818460208701613c36565b9190910192915050565b6000602082840312156143b557600080fd5b81516126b381613ded56fea2646970667358221220d29ad3103545e5923649b62f28bb7ff8b383a9370d5e9bfdb9278d5ff5c795b764736f6c634300080e0033608060405234801561001057600080fd5b5060405161090e38038061090e83398101604081905261002f916100d5565b61003833610069565b6001600160a01b03918216600090815260016020526040902080546001600160a01b03191691909216179055610108565b600080546001600160a01b038381166001600160a01b0319831681178455604051919092169283917f8be0079c531659141344cd1fd0a4f28419497f9722a3daafe3b4186f6b6457e09190a35050565b80516001600160a01b03811681146100d057600080fd5b919050565b600080604083850312156100e857600080fd5b6100f1836100b9565b91506100ff602084016100b9565b90509250929050565b6107f7806101176000396000f3fe608060405234801561001057600080fd5b506004361061007d5760003560e01c80638da5cb5b1161005b5780638da5cb5b146100ea578063e8a97a3e14610108578063f2fde38b1461011b578063fceb00241461012e57600080fd5b806316345f18146100825780635b6cca80146100a8578063715018a6146100e0575b600080fd5b610095610090366004610702565b610141565b6040519081526020015b60405180910390f35b6100bb6100b6366004610702565b610287565b60405173ffffffffffffffffffffffffffffffffffffffff909116815260200161009f565b6100e8610346565b005b60005473ffffffffffffffffffffffffffffffffffffffff166100bb565b6100e8610116366004610724565b61035a565b6100e8610129366004610702565b610447565b6100e861013c366004610702565b6104fe565b73ffffffffffffffffffffffffffffffffffffffff80821660009081526001602052604081205490918391166101d8576040517f08c379a000000000000000000000000000000000000000000000000000000000815260206004820152601a60248201527f5072696365206665656420646f6573206e6f742065786973742e00000000000060448201526064015b60405180910390fd5b73ffffffffffffffffffffffffffffffffffffffff8084166000908152600160205260408082205481517ffeaf968c00000000000000000000000000000000000000000000000000000000815291519293169163feaf968c9160048082019260a0929091908290030181865afa158015610256573d6000803e3d6000fd5b505050506040513d601f19601f8201168201806040525081019061027a9190610771565b5091979650505050505050565b73ffffffffffffffffffffffffffffffffffffffff8082166000908152600160205260408120549091839116610319576040517f08c379a000000000000000000000000000000000000000000000000000000000815260206004820152601a60248201527f5072696365206665656420646f6573206e6f742065786973742e00000000000060448201526064016101cf565b505073ffffffffffffffffffffffffffffffffffffffff9081166000908152600160205260409020541690565b61034e6105e3565b6103586000610664565b565b73ffffffffffffffffffffffffffffffffffffffff808316600090815260016020526040902054839116156103eb576040517f08c379a000000000000000000000000000000000000000000000000000000000815260206004820152601a60248201527f5072696365206665656420616c7265616479206578697374732e00000000000060448201526064016101cf565b6103f36105e3565b5073ffffffffffffffffffffffffffffffffffffffff918216600090815260016020526040902080547fffffffffffffffffffffffff00000000000000000000000000000000000000001691909216179055565b61044f6105e3565b73ffffffffffffffffffffffffffffffffffffffff81166104f2576040517f08c379a000000000000000000000000000000000000000000000000000000000815260206004820152602660248201527f4f776e61626c653a206e6577206f776e657220697320746865207a65726f206160448201527f646472657373000000000000000000000000000000000000000000000000000060648201526084016101cf565b6104fb81610664565b50565b73ffffffffffffffffffffffffffffffffffffffff80821660009081526001602052604090205482911661058e576040517f08c379a000000000000000000000000000000000000000000000000000000000815260206004820152601a60248201527f5072696365206665656420646f6573206e6f742065786973742e00000000000060448201526064016101cf565b6105966105e3565b5073ffffffffffffffffffffffffffffffffffffffff16600090815260016020526040902080547fffffffffffffffffffffffff0000000000000000000000000000000000000000169055565b60005473ffffffffffffffffffffffffffffffffffffffff163314610358576040517f08c379a000000000000000000000000000000000000000000000000000000000815260206004820181905260248201527f4f776e61626c653a2063616c6c6572206973206e6f7420746865206f776e657260448201526064016101cf565b6000805473ffffffffffffffffffffffffffffffffffffffff8381167fffffffffffffffffffffffff0000000000000000000000000000000000000000831681178455604051919092169283917f8be0079c531659141344cd1fd0a4f28419497f9722a3daafe3b4186f6b6457e09190a35050565b803573ffffffffffffffffffffffffffffffffffffffff811681146106fd57600080fd5b919050565b60006020828403121561071457600080fd5b61071d826106d9565b9392505050565b6000806040838503121561073757600080fd5b610740836106d9565b915061074e602084016106d9565b90509250929050565b805169ffffffffffffffffffff811681146106fd57600080fd5b600080600080600060a0868803121561078957600080fd5b61079286610757565b94506020860151935060408601519250606086015191506107b560808701610757565b9050929550929590935056fea2646970667358221220a52b81c8b58fb846a90f5000713a3a0a0e4e18d23b20dcf1ece44bbf6244090a64736f6c634300080e0033",
    "linkReferences": {}
  },
  "methodIdentifiers": {
    "WETH9()": "4aa4a4fc",
    "addAsset(address,uint256,address)": "cb2a0f56",
    "approve(address,uint256)": "095ea7b3",
    "assets(address)": "f11b8188",
    "balanceOf(address)": "70a08231",
    "changeAssetProportion(address,uint256)": "7e609942",
    "deposit(uint256)": "b6b55f25",
    "getApproved(uint256)": "081812fc",
    "getAssetProportion(address)": "9b306aa1",
    "getAssetValue(address)": "93e5e90f",
    "getAssets()": "67e4ac2c",
    "getNFTShare(uint256)": "5c9ff291",
    "getNFTValue(uint256)": "f5962e2d",
    "getPortfolioValue()": "bb0498de",
    "getRemainingProportion()": "2226a4c0",
    "getTokens()": "aa6ca808",
    "invite(address)": "4b77c468",
    "isApprovedForAll(address,address)": "e985e9c5",
    "name()": "06fdde03",
    "owner()": "8da5cb5b",
    "ownerOf(uint256)": "6352211e",
    "owners(address)": "022914a7",
    "poolFee()": "089fe6aa",
    "rebalance()": "7d7c2a1c",
    "renounceOwnership()": "715018a6",
    "safeTransferFrom(address,address,uint256)": "42842e0e",
    "safeTransferFrom(address,address,uint256,bytes)": "b88d4fde",
    "setApprovalForAll(address,bool)": "a22cb465",
    "shareOf(uint256)": "26ca291b",
    "shares(uint256)": "57a858fc",
    "supportsInterface(bytes4)": "01ffc9a7",
    "swapRouter()": "c31c9c07",
    "symbol()": "95d89b41",
    "tokenIdOf(address)": "773c02d4",
    "tokenURI(uint256)": "c87b56dd",
    "tokens(uint256)": "4f64b2be",
    "totalSupply()": "18160ddd",
    "transferFrom(address,address,uint256)": "23b872dd",
    "transferOwnership(address)": "f2fde38b",
    "withdraw(uint256,uint256)": "441a3e70"
  },
  "id": 37
}